:020000040800F2
:10000000005000207D720108197301084DEE0008B0
:100010001973010819730108197301080000000021
:10002000000000000000000000000000197301083B
:100030001973010800000000197301085317010823
:10004000197301081973010819730108197301085C
:100050001973010819730108D91A0108ED1A01086A
:10006000E91A0108E51A0108E11A010811940008CB
:1000700001940008F1930008E1930008D19300086F
:10008000BD930008AB9300081973010819730108A8
:10009000197301081973010819730108DD1A0108A1
:1000A0001973010899F700081973010889F7000806
:1000B00079F7000869F7000859F70008FD380108CA
:1000C00001390108F5380108F938010819730108E8
:1000D00019730108911701088517010819730108A0
:1000E000D51A0108197301081973010800000000EE
:1000F0000000000000000000000000000000000000
:0C01000000000000000000005FF808F1A3
:100110002DE9F04F0B4B0C4D0C4AC5F8B8340023B9
:1001200010680B499FB08842C5F8BC3416D11360E3
:1001300062B6084B18680AF033FB074B1B689847F8
:10014000FEE700BF8BC1000820060020F04F002012
:10015000EFBEADDE00F0FF1F04F0FF1F0893099310
:100160000A934FF4E013BD4C0B93236843F48033A0
:100170002360A36943F01003A361236803F40033F1
:100180000993089B01330893099B1BB9089BB3F59E
:10019000A06FF2D1236813F4003300F0A58202238C
:1001A0000A93AF4BAF4F1A6842F010021A601A68F8
:1001B00022F003021A601A6842F002021A606368B1
:1001C000636063686360636843F480636360A64B45
:1001D0001A68043B22F070425A60A44A3A6062688E
:1001E00022F47C1262605A6842F000425A60DA6877
:1001F00022F40042DA609B681E0449BF9C4B4FF416
:10020000E0133B604FF480130B930A9B012B00F02B
:100210008382022B05D10B9B6268134343F4803326
:100220006360236843F08073236023689801FCD5E2
:10023000636823F003036360636843F00203636051
:10024000636803F00C03082BFAD16368DFF8688257
:1002500003F00C03042B00F06382082B00F0628291
:10026000824BC8F800306368DFF85092C3F3031381
:1002700019F80320D8F80030DFF844B2D340C8F8AA
:1002800000307C4B4FF6FF72CBF80C30A3690DF1B8
:10029000780A43F00103A361636A636A764E43F010
:1002A00080736362A369304643F01C03A3614FF07F
:1002B00000032AF82C2D51468DF84E3009F03AF8FB
:1002C00051466E4809F036F851466D4809F032F84B
:1002D00010228DF83E2002228DF83F204FF400724C
:1002E0001EA921F83C2D3046326109F023F86549FA
:1002F00050464A6842F000724A600AF03AF9139B8D
:10030000614A3046B3FBF2F34FF47A72C5F8C03459
:10031000D8F800304FF0010CB3FBF2F35B4A013B1D
:100320005360F0238BF82330002393600723DFF81A
:1003300094E11360564A09F10E01002331F8026F6F
:1003400046FA03F818F0010F18BF0CFA03F803F18E
:1003500001031EBF1060A2F804800832102BEFD1F9
:1003600000F580607045E8D13B68404A934240F018
:10037000EB81012385F8C4340CF064FB18B90FF04D
:10038000B1F80EF0B1FD0EF0DBFE95F8C534414F2B
:1003900043F0010385F8C5343F4BDFF82C819A7890
:1003A0003E4B08F1050A1A703D4B1B683B6095F8FF
:1003B000CA3485F8C634002313F808004FEA830BCB
:1003C0005E1C002800F0C681029311F055FA029BD2
:1003D0004AF8230010B10523C671837112215AF81F
:1003E0000B0011F06FFA032E3346E5D100210846C9
:1003F00011F00CFB0021012011F008FB002102206C
:1004000011F004FB0121022011F000FBA36900217F
:1004100043F00103A3614022224819F0F4FD4FF09C
:10042000FF33214AC5F818356420C2F8033011F0B3
:1004300086F9A02200211D4819F0E5FD00241C4D7D
:100440001C4E0023605956F83310DA00884240F001
:10045000848109EB0203187F38E000BF00100240DE
:1004600000200240D80000200410014000127A0051
:10047000001BB7000005FA0500080140000C014010
:10048000001001400000014040420F0010E000E079
:10049000341600200C3600200816002014250020F9
:1004A00068180020F80A0020380B0020F81B0020F4
:1004B00008BE010878A101081000002060A1010811
:1004C00000ED00E000140140E70A0020103414F0B1
:1004D00037FEE02CB5D1B44AB44C0021A046914679
:1004E000B34E00250B5D01F10F00204406EB030A1B
:1004F00010F801CFBCF1000F05D09AF80CE0E645EA
:1005000008BF82F858E090F803C0BCF1000F05D096
:1005100016F803E0E64508BF82F859E00135032DDF
:10052000E6D1B2F8580040B108EB010009EB8303B3
:100530005065C3F8202502F517721C313829D0D137
:100540000424994E302200219A483D6886F82C45B3
:1005500019F059FD964B224693F80BC093F80A9078
:100560000023944C1846A2464FF0FF0BDFF89CE2A4
:1005700005F040081EF9011F1E29195540F0F380AF
:10058000B8F1000F00F0F980B9F1000F00F0F5802C
:100590000C33302BEED108B186F82C25864B874CD6
:1005A00093F800B0864E874B15F4805214BFA08894
:1005B000B08A83F800B00292994616F015FADFF877
:1005C0005082DFF850A2C8F80000308A16F008FA0E
:1005D0007D4B1860708A16F003FA7C4B18606088B7
:1005E00016F0FEF97A4B1860208816F0F9F9794B6D
:1005F000BAF81A101860C1F5FA60039116F0F4F910
:10060000754A03991060BAF81820B4F806A0501A79
:10061000A0EB0A00039216F0E7F9039A6F4908600D
:10062000C2F5FA60A0EB0A0016F0DEF96C4B6D4AD9
:1006300018606D4B2B40002B40F0A5806B4B03EBFB
:10064000CB0B9BF80130136040F2DC510023684A69
:1006500022F813100133082BFAD1029BB6F814B01C
:100660000BB1B4F804B0B378042B05D14FF480502B
:100670000BF064FF4FF0000B002599F800205D4C53
:10068000A2F11703022B257000F2C880DFF88891D1
:10069000002155F8090005EB090A16F08DFB00282A
:1006A00073D03B68DA0400F1DA800023D8F8001038
:1006B000514A42F823100133082BFAD12378C02283
:1006C00000214E48049319F09EFC3779B378003727
:1006D00018BF0127042B00F2E780DFE813F0900138
:1006E000E5009201E8008A01226842F001022260DE
:1006F0000893236803F002030993089B01330893CE
:10070000099B1BB9089BB3F5A06FF2D123689F0723
:1007100001D5012344E5FEE7636843F460137FE5F8
:100720003B689EE563686268C3F38343D10303F1CA
:10073000020302D4324A534393E5626812F4003F45
:100740003A6818BF5208F6E72E4A93427FF414AE77
:1007500002230FE64AF8230045E60133042B7FF419
:1007600072AE0020B2E61F297FF412AFB8F1000F7D
:1007700003D0BCF1000F7FF40BAF013A0AF803B0CD
:10078000D2B2012004E701235DE71F4B05EB030E06
:100790009AE80F008EE80F00237810350133802D82
:1007A00023707FF475AF7CE72006002098A1010834
:1007B0006C210020584100201C250020A42D002081
:1007C0006823002094110020802300203411002091
:1007D000BC110020B0110020C8110020B811002069
:1007E000C4110020541200202000100088AB010822
:1007F00044230020F42200205825002080250020DA
:1008000000093D00001BB700D0110020CFA1010856
:10081000C82600203836002064170020B44B13F897
:10082000321003EBC2030829217088BF0821D3F8D6
:1008300004C088BF2170BCF1000F3FF432AF002527
:10084000DFF8109323789D42BFF62BAF2B0103EB0B
:10085000090E63440FCB01358EE80F00F2E72378D1
:10086000012B7FF622AF4FF07C59A24D05EB03130D
:1008700003F110071035BD423FF417AF494655F854
:100880000C0C16F005F9494645F80C0C55F8100CFF
:1008900016F0FEF8494645F8100C55F8080C16F00D
:1008A000F7F845F8080CE5E7934CA04602E0934CB6
:1008B000DFF8A482924A934B21461A60924A934BE6
:1008C0004046002F18BF1346914A0025136015F0CB
:1008D000D7FF01464FF07A5016F08EF98D490390FC
:1008E000204616F0D5F88C4CDFF870A20590049BDA
:1008F000AB4240F3E58005EB0A035E790021304608
:100900000EF010FF029000287DD1844A7D4B1A60C2
:100910007D4A7F4B1A60824C82482368002B40F04E
:100920001F81037803F0EF02082A7F4A40F03A81E2
:100930001178182B41F01001117001D10FF046FE13
:100940002368002B40F03781784A794C136806926F
:1009500013F0010640F078819B0440F1C28194F8C5
:100960001826744B04F5A8651A7004F5C26816F8C9
:100970000890002148460EF0D5FE074698B30022A5
:100980004FF0010A5FFA86FB05F80FBC45F8040C2E
:1009900005F80E2C05F8062C05F810AC484610F0AA
:1009A0006BFFD3445FFA8BFB18B180F806A080F888
:1009B00007B04FF0000B2A2110F084FF5E4A00219F
:1009C000384610F0C1FD5D4B2A1D2B605C4B29465B
:1009D00038466B60C5F808B010F00AFE5A467979BF
:1009E00038680AF003FE0136082E05F11C05BED159
:1009F00077E10024A04601274FF0000B5AE7454C51
:100A0000F8E7504C51E7304610F036FF6B1C606140
:100A1000DBB210B10322C37182711A2110F052FFB0
:100A2000002F51D0BAF8000015F0DEFF16F032FAB0
:100A3000454B4FF6FF791E68B6FBF0F34B441B0C99
:100A4000B6FBF3F60FB1B6FBF0F99AF80230042BBF
:100A50003ED1484615F0C4FF2E4916F019F8A060A3
:100A60000790304615F0BCFF414616F011F8079B81
:100A700006903649184616F00BF8069A01461046BD
:100A800015F0FCFE9AF80330E060324601930299BB
:100A90001FFA89F3CDF800B0204615F041F9002384
:100AA00018221D49AB4218D1002383F0010323749F
:100AB00001231D44082D637404F118047FF417AF5B
:100AC0000122234B1A7026E7039816F047FFADE783
:100AD000304615F085FF0599BFE702FB0310466815
:100AE0006068864201D00133DCE70123DDE700BF07
:100AF00088AB0108D41100206F120339ACC5A737A9
:100B000019B100083831002099AE000845B100083D
:100B10003C3100206F12833A802500209BAE0008F4
:100B20005412002094110020ED2600200C360020E5
:100B3000200600209021002040420F0029B6000826
:100B40000FAD0008282930381000002000007A443A
:100B500058120020D0110020ACC5A7366823002011
:100B60000278334B334913F8325003EBC2035E680B
:100B70000D70002E3FF4D5AE00232F4FAB42BFF6D1
:100B8000D0AEC3EBC3017218D2F800C001EB070E60
:100B900041F807C091880133AEF8041092798EF8BD
:100BA0000620EBE70E2B3FF4C3AE1178192B21F092
:100BB00010011170C1E600254FF0040B1F4F204EAD
:100BC000DFF880A0A7F1030917F8018FB8F1000F33
:100BD0003FF4BAAE404610F04FFE01350446706156
:100BE000EDB210B180F806B0C571002140460EF09C
:100BF00099FD80461A21204610F064FEB8F1000FDE
:100C00003FF4A2AE0022B9F8023001929AFBF3F34E
:100C1000B9F800209BB2009230460A4A414615F0CE
:100C20007FF80123082D737406F11806CCD18BE6EA
:100C3000D4A90108152B0020162B00207D2C0020A4
:100C40009421002040420F000025FF2294F82D75CA
:100C5000CF4B294638461D705D609D60DD601D6488
:100C600083F8442083F8452083F8465083F84750A2
:100C700083F848500EF056FD064690B30368C54908
:100C80006A18507C18B15268934200F03F841835BE
:100C9000C02DF5D10025C4F83C6584F830553846A0
:100CA00010F0EAFD10B10223C571837100252A21DD
:100CB00010F008FEB84A0021304610F045FCB74B52
:100CC000B74AC4F84035B74B111F3046C4F8443515
:100CD000C4F8485510F08CFC2A46717930680AF047
:100CE00085FC94F8C534B4F81E6643F0040384F818
:100CF000C534A4F8206694F81A06002E40F011843A
:100D000010F0BAFD94F81B26C4F82406003218BF70
:100D1000012284F8282650B1242294F81C368271CE
:100D2000002BC6710CBF1221162110F0CBFD002044
:100D300010F040FE4FF000089B4B0020C4F84836EE
:100D400008F0DAFA012008F0D7FA984A02F1200CEC
:100D500052F8055CA5B312F9093CE11891F84C660C
:100D600091F84E7691F850E604EB0310911E11F8BD
:100D7000019FB14591F8029008BF80F85866B945C7
:100D800091F8049008BF80F85976F14508BF80F8C3
:100D90005AE68A42EBD104EB031393F8581679B163
:100DA00093F8591661B193F85A1649B15179C3F8BD
:100DB000545683F85B16917983F8608683F85C1645
:100DC00010326245C4D114F007FB14F005FB94F80F
:100DD0006C0614F0B5F9012394F86C2602F01F019B
:100DE0005209022A03FA01F300F0CA83032A00F031
:100DF000CC8394F8680610F03FFD054618B1122325
:100E000083710223C37194F8690610F035FD18B19F
:100E1000132383710223C37194F86A0610F02CFD2A
:100E200018B1142383710223C3711B21284610F0CB
:100E300049FD94F8690610F01FFD072110F042FDEE
:100E400094F86A0610F018FD1B2110F03BFDD4F851
:100E50006426574B9A4240F09D8303F56043D9685E
:100E600041F48051D960D96821F48051D96094F857
:100E70007036002B00F0AA8300231846118801F475
:100E8000415141F445710B4303431380938B23F489
:100E900000631B041B0C93830723138213889BB2EC
:100EA00043F04003138094F8C434032B11D11F2066
:100EB00007F037FC00233F4A02EBC30191F902100F
:100EC000022901F016820133042BF5D1022007F02C
:100ED00028FC0BF014FA012012F0A2FB2C2010F0D9
:100EE000CBFC9F238DF83C300023C4F874063220DD
:100EF0008DF83D308DF83E308DF83F3010F01FFCFE
:100F0000D4F8740610F042FD04230FAA13A92A484E
:100F10000BF07FF9D4F8740610F03DFD9DF84E30CB
:100F20009DF84D201B0243EA02439DF84F201343D6
:100F3000224A93421FD0322010F001FCD4F87406EC
:100F400010F024FDF5211C480BF091F9FF211A48FF
:100F50000BF08DF98DF84C00D4F8740610F01BFDE1
:100F60009DF84C30702B06D194F8C434022B02D17A
:100F7000032384F8C434124B00211E791148751ED6
:100F80006A426A415D7984F878266F1E1CE000BFD2
:100F9000AC1B00208025002040420F0035AD00082A
:100FA000640B002069AE00086C210020DDA101085F
:100FB0000030014032410020003800401520200060
:100FC000FE350020A00C00207B427B4184F87C365B
:100FD000069B14221B6803F40047C3F3C03384F854
:100FE0007A3619F010F8012E04BF94F8793684F897
:100FF00080361FB194F87B3684F88F3694F87E36AD
:101000001BB194F87F3684F88A36012D08BF94F816
:101010007D36C14D08BF84F8853600232E464FF03B
:10102000070B1F469946DFF83C8308F1940A307895
:10103000E8B110F021FC18B180F806B080F80790F4
:10104000002110F03FFC002331781AF813005A00F9
:10105000884240F0BE8208EB020393F8953073702B
:101060000723337101237A1CB770F370D7B20BF1E9
:10107000010B5FFA8BFBBBF10B0F06F10506D6D116
:10108000002B00F0BB80A54E4920736843F4404319
:10109000736014F055F8A24AA24900234FF01C0EC9
:1010A000104688460EFB032CDCF804C08C4540F04B
:1010B0009682DBB21C2101FB0303726919694FF0B0
:1010C00000090A437261062283F819901A7695483E
:1010D00009F0C7FA13A809F099FA934B022F13935A
:1010E00034BF4B46802318934FF4807319934FF409
:1010F00080631A9320231B934FF400538B4E13A944
:10110000884816971C931496CDF85490CDF85C90AF
:10111000CDF8749009F087FA012F94BF00220122C4
:10112000D8F80030824943F00103C8F800304B681A
:101130004FF0070E23F4702323F4807343EA022355
:101140004B608A687B4B134043F4602343F00203F7
:101150008B60CA6A7B1E22F47002DBB242EA035340
:10116000CB621F270123EA784AB395F80180581C07
:10117000B8F1090FC0B295F804C040F23682A8F168
:101180000A02D1F80C9002EB42020EFA02FA29EAA6
:101190000A090CFA02F242EA0902CA60062B00F2BE
:1011A000318203F1FF3C4A6B0CEB8C0C07FA0CF319
:1011B00022EA030308FA0CF21A434A630346053590
:1011C000AE42D0D15A4B9A6842F480729A609A68C3
:1011D00042F001029A609A6842F008029A609A68A6
:1011E0001007FCD49A6842F004029A60504B9A6847
:1011F0005107FCD49A6842F4A0029A60D4F89C0685
:10120000002841F0BD80D4F8A036002B41F0B88012
:10121000D4F8A436002B41F0B3800DF05DF930B95D
:101220000120022110F030FC012014F065FE0121A4
:1012300094F8C534084643F0020384F8C53410F02E
:10124000E5FB0021084610F0E1FB0021022010F030
:10125000DDFB0A25384E012010F0FFFA002010F0C7
:10126000FCFA192010F06BFA3368DA0302D401207B
:1012700010F0A0FB192010F062FA002010F09AFB89
:10128000013DE8D12946284610F0C0FB294601203F
:1012900010F0BCFB294B2A4F18680FF0DBF9BA8914
:1012A000002A40F0F981274B0DF14C08587A15F0CF
:1012B0009BFB254915F0ECFB244915F0E1FA0BF0F6
:1012C0000EFC234B1860234B188A15F08DFB01464A
:1012D000214815F091FCC4F8A80611F043FB012346
:1012E0001393069B1A68530201D41C4B1393D70027
:1012F0005EBF139B43F010031393194B19680293BD
:1013000011F0020F1EBF139B43F0C60313934E0749
:1013100048BF139B28E000BFA00C00200010024033
:1013200014000020080002404C240140B40C0020AE
:1013300000240140FDF7F1FF741800201025002063
:101340007A2C00207431002035FA8E3CDB0FC93F27
:1013500094310020A8220020A889803A01000010C2
:101360001825002060A1010844BF43F0080313932F
:10137000D40542BF139B43F000631393B04B19781D
:10138000039301F0EF00082801D00E2903D1139B2D
:1013900043F480531393139BD00354BF43F400537F
:1013A00043F420431393139BD7044CBF43F064438F
:1013B00043F044431393960642BF139B43F4807358
:1013C0001393540742BF139B43F400331393139BAF
:1013D00043F400201390500505D59A4A127912B1B2
:1013E00043F4C0131393182908BF139B4FF0010651
:1013F00004BF43F0607313930723149329464046B8
:10140000ECB20BF0E8FF70B120460DF0E7FC50B9EC
:101410006A0958F8223004F01F0406FA04F423EA9B
:10142000040448F822400135242DE7D1864D98E880
:10143000030005F2AC6383E803004FF41972002146
:1014400005F2B46018F0DFFD07F08AFB00227F4F41
:101450007F4C049767607F4F7F4BBE461A809A701F
:101460007E497F4B7F4E80481960338BDFF824A282
:10147000A06085F8182919B2059005F61C1CDAF849
:10148000000027F8121000F596704CF82200013287
:10149000122AF4D1754FDFF8BCC13868C20458BFB6
:1014A000B6F92610AEF80610714901F1500E0A780F
:1014B000AAB98A7891F803A0524510D2002A00F008
:1014C000FF80013A02EB820202EB820202F56172B6
:1014D00091F801A092B20AF1040A2CF81A20043102
:1014E0008E45E4D1020740F16D81307A0A2800F27E
:1014F0006281DFE810F0F300F300D50351047504B6
:1015000095049504D90460011605F3001B8D594A12
:101510009BB212680133B2FBF3F3574A1370FFF723
:10152000B9BB10F0A9F94021C4F82406C4F840065C
:1015300005461C200EF0F6F80746CDB1C0B12423B5
:10154000AB7101231A21EB71284610F0BBF9002181
:10155000A4F8446601914949494A91FBF6F192FB8E
:10156000F6F389B200919BB23946464814F0D8FB95
:101570000023D4F82C26138084F83D36FFF7DABB1D
:10158000414AD1680B43D36033E43F4A11690B43AE
:1015900013612EE43D4B9A420AD103F5EC331969ED
:1015A00041F480411961196921F4804119615EE4B7
:1015B000374B9A427FF45BAC03F5EA33196941F487
:1015C00000411961196921F40041EFE7012302206C
:1015D00054E401330A2B7FF438AD00233FE5013397
:1015E000072B7FF45FAD002364E50A6908EB480A26
:1015F0000EFA0AF922EA09090CFA0AF242EA090289
:101600000A61CBE50C2B0DD8DA1FD1F830C002EB04
:10161000820207FA02F32CEA030308FA02F21A43E1
:101620000A63CBE50D3BCA6A03EB830307FA03FCAD
:1016300022EA0C0208FA03F31343CB62BEE500BFB3
:101640001C250020261A002020060020F1FD00089D
:10165000D8290020CC35002010360020A0860100BB
:10166000B829002038360020EDFD00080C36002097
:101670007C180020100000201C04002020A107007E
:1016800040420F004C0C0020001002400038004087
:10169000003C0040801B00202E46DFF83890DFF829
:1016A0003880B88915F09CF9D9F80020014608EB7C
:1016B00006002C360BF04AFEB6F5B07FF1D1F2E50C
:1016C0000AF1010A0AEB8A0A0AEB8A0A0AF5617230
:1016D000FEE600BFF82400207C120020B64B40201C
:1016E0001C6007F01BFA8346002864D04FF0000905
:1016F000B24A82F80090069213F05AF9317A824683
:101700000129069A0CD0C0F0B9820A2916D1AC4B37
:101710001B6813F480631CBF80F00103DBB21370FD
:101720000322A84B1A700722A74B1A700122A74B5D
:101730001A700C23237042F6F8236380A44B9F4A4F
:101740006360A44BA3609BF90200BAF1000F40F064
:10175000A3821378002B0CBF012303231278002AE5
:1017600040F09C82B27A002A0CBF0022082201922B
:101770000093994A4FF4E133402107F019F8974B51
:101780001860BAF1000F01D0954B1860737D217875
:10179000013BDBB2934A994213709CBF0023137044
:1017A00028B1864B1B7813B1012385F864390030CA
:1017B00018BF012030B908200AF0C0FE049B636006
:1017C000059BA3607E4B1B6858040BD51222227028
:1017D00044F620626280844A84496260844AA2603E
:1017E000844A116042F20102134209D044F6206299
:1017F0009904628040F1C083082222707E4A6260B0
:101800004FF0000A7D4CDB0384F800A040F18D818D
:1018100013F07CF901232370794B40F22A3293F8BC
:10182000F1B05146774818F0EEFBBBF1000F00F025
:101830006F81514658460DF075FF734B02680446A0
:101840001A6082689946002A00F06281584610F0BA
:1018500013F8C5F8680918B1282380F807A0837128
:101860001B2110F02FF80023684AD9F8001002F16C
:10187000180E5EF833004FEAC30C814240F08383B8
:101880006244107F13F05CFCD9F80000604A0388C2
:101890004FF0000A23F001031B041B0C03805D4B77
:1018A000DFF880E11B68ADF836A0934281BF03F1F9
:1018B000B772594902F55852B2FBF1F292BF0022B9
:1018C00002F1FF3292B2511CB3FBF1F35349ADF870
:1018D00032A0B3FBF1F303219BB2B3FBF1F14FEA6A
:1018E000410CAEF800C0DFF840E18DF838A0AEF84A
:1018F00000101EA921F8482DADF8343013F025FD55
:101900006023ADF83EA0ADF840A0ADF842A0ADF820
:1019100044A0ADF848A0ADF846A0ADF84AA0ADF897
:101920003C30E3794FF0000B580757BF01220422E7
:10193000ADF83E204FF4807203F002034CBFADF8C7
:101940004020ADF84820ADF84430ADF842B00FAAC1
:101950006179D9F800000DF0F1FD6179D9F8000046
:1019600013F0C6FCD9F800200121B2F84430DFF8AA
:10197000BCA06FEA43436FEA53439BB2A2F84430E2
:1019800013889BB243F0800313806379108C01FAB3
:1019900003F39BB280B220EA03001084108C80B263
:1019A00003431C20138413889BB20B431380237BB7
:1019B0001B4A00FB03233BE0802A0020852A0020ED
:1019C0000C3600207F2A0020842A0020B328002023
:1019D00069F90008B5000108D5010108E42A0020D2
:1019E0006C1B00207E2A002069FE0008400D0300C9
:1019F00051FE0008B829002041FE0008AB35002048
:101A0000243400209C370020CC3A002060A101083B
:101A1000FF6BDC0210000020006CDC0200350C00C3
:101A2000140000209A37002098370020C83A002080
:101A3000BB4A1869D2F814E040EA0E0EC2F814E06E
:101A40004FF0280E83F819B083F818E0D2F814E0AC
:101A500040EA0E005061B34AC3F814B09A605B7B51
:101A600013A88DF84D108DF84F108DF84C308DF86F
:101A70004EB013F083FBA068CAF8000008F0F1FD37
:101A8000DAF80000036823F001031B041B0C036059
:101A900008F0E7FD13A808F0B9FDD9F80030627925
:101AA00034331344139340F22A331693802318934C
:101AB0009D4B13A91493102315934FF4007319939E
:101AC0004FF40053DAF800001C93CDF85CB0CDF869
:101AD00068B0CDF874B0CDF86CB008F0A4FD6279B0
:101AE000D9F800100C2A8EBF5B46904B03EB4203E3
:101AF0008A8998BFB3F8A83092B21343DAF800206D
:101B00008B81136843F0020313600122884B1A7023
:101B10000023FF211C4687481A181C520433802BCF
:101B20009170D170F8D113F061F8834B1B6859059F
:101B30003FD5042006F0F2FF804B0421186006F028
:101B4000E3FF7F4B1870082006F0E8FF7D4B08216B
:101B5000186006F0D9FF7C4B2C22187000217B48BE
:101B600018F051FA7C2385F86C398E2385F86D398D
:101B7000E02385F86F397D23202085F8973906F01A
:101B8000CDFF734B2021186006F0BEFF714B18701B
:101B90004FF4805006F0C2FF6F4B4FF48051186035
:101BA00006F0B2FF00226D4B18706D4B1A7008F0F2
:101BB00059FF6C4CB4F80090B9F1000F40F044822A
:101BC00095F89809002800F03F820FF055FEC5F8FF
:101BD0009C0918B11A2380F80790837113210FF024
:101BE00071FED5F89C090FF0D6FE00BF02215E48B9
:101BF0000AF0F0FA4FF000099F2332208DF83C30B4
:101C00008DF83D908DF83E908DF83F900FF097FD48
:101C10008DF84D9000BFD5F89C090FF0B7FE042356
:101C20000FAA414650480AF0F4FAD5F89C090FF083
:101C3000B2FE00BF9DF84E309DF84D201B0243EAD6
:101C400002439DF84F201343484A934200F04283D9
:101C500000F39F81464A934200F0A48101329342EF
:101C600000F0E581A2F51A42033A934200F02D8379
:101C7000002323806380A360E360E5E102213D4A05
:101C80000723117003213C4A237011703B4A45F22F
:101C9000F05382F8009050E503235FE5082266E5E3
:101CA0000A221B0193FBF2F300223549A3F5B0632E
:101CB00041F822300132122AFAD142F6F823638029
:101CC000304B40206360304B2270A36006F026FF4B
:101CD000824600283FF46FAD12F06AFE737AB17A43
:101CE00000280CBF01220322002B0CBF0623072370
:101CF00000290CBF002108219AF902E082460B431B
:101D00008DE80C00214B224A4021704606F050FD20
:101D1000BAF1000F3FF44BAD1E4B186047E500BF12
:101D200000100240DF8C00089C37002060A10108F1
:101D3000C63A0020183500200C360020641B002015
:101D4000701B0020601B0020711B00208C0F0020E6
:101D5000781B0020731B0020881B0020841B0020A0
:101D6000851B002038040020003800401620C200E7
:101D700017BA20007F2A0020842A0020B3280020E0
:101D8000E428002091F90008ADF90008A0860100C0
:101D9000210201086C1B00201023237042F6F82357
:101DA0006380814B40206360804BA36006F0B6FEE9
:101DB000824600283FF4FFAC12F0FAFDB27A002808
:101DC0000CBF01230323002A0CBF002208229AF92A
:101DD00002E00192009382464FF4E133744A93E7A4
:101DE0000823237042F6F8236380724B402063601F
:101DF000714BA36006F092FE824600283FF4DBACF4
:101E000012F0D6FD002200280CBF012303239AF90B
:101E100002E00192009382464FF4E133674A73E790
:101E200000234FF00C0E664A66491370664A062876
:101E300084F800E00B7013702BD01B22634B4FF41F
:101E4000E13B1A700522624B83F800E0614B1A7087
:101E500042F6F8236380604B402063605F4BA360D1
:101E600006F05CFE824600283FF4A5AC12F0A0FD0F
:101E7000B27A00280CBF01230323002A0CBF0022E2
:101E800008229AF902E00192009382465B46544A86
:101E90003AE721224D4BDFF884B11A704C4B83F89E
:101EA00000E04C4B1870D3E74FF0000B4D4B402037
:101EB00083F800B00E23237044F6206363804A4BFE
:101EC00063604A4BA36006F029FE00283FF473AC20
:101ED000B0F800A0464B0AF4825A83F800B0B37AF7
:101EE000BAF5825F90F9020014BF01220322B3B950
:101EF000BAF5825F14BF5B4608238DE80C004021D1
:101F00004FF4E1333B4A06F053FCBAF5825F7FF4AD
:101F10004EAC0022384B1860384B1A7047E4082347
:101F2000EBE70A221B0193FBF2F300223449A3F5ED
:101F3000B06341F822300132102AFAD142F6F82378
:101F40006380304B402063602F4B2270A36006F00B
:101F5000E5FD00283FF42FACB37A90F90200002B86
:101F60000CBF0023082301930323284A0093402138
:101F7000274B06F01DFC1AE4DA077FF541AC0C2272
:101F80002270244A3BE40133042B7FF472AC00201E
:101F900078E4214A934200F09F8141DC023A934267
:101FA0007FF466AE802391E1CDF80008E1F80008E7
:101FB0001100010845F800085DF80008C9FF000895
:101FC0004D2A0020E42600204C2A00200C28002066
:101FD000302800204E2A0020B7E30008CDE3000897
:101FE000F1FE0008A72A002079FE0008A1030108DD
:101FF000A52A0020CD020108141A0020201A002072
:10200000482900202DFB00085DFB0008750201082F
:10201000A068060031FE00081920C20090D003001D
:10202000B94A9342BED0013293427FF421AE4FF4BD
:10203000807323806380A38822881B02A36053439C
:10204000E360012385F8A039E468C4B14FF0000AC9
:10205000E40A0DF14C0BA2450CDA0AEB04094FEA35
:102060006909102241464FEAC9200BF071FB0F2885
:1020700000F335810BF010FBA44BE4021C60A44B71
:102080009A78A44B02B101221A70039BA2481B78D4
:10209000052B02BF4FF4C872A04B1A800CF07AFDDA
:1020A000C8229F4B00211A809E4AA5F8A2191378D6
:1020B000A5F8A41943F00803137003239A4A85F87E
:1020C000A1391370994B9A4A19805980994B117014
:1020D0001A799946012A0AD13022974817F093FFBE
:1020E0004CF250324FF07E5194480BF02FF9002102
:1020F000934B85F8D81919605960996099F80530A3
:10210000012B09D110228F4817F07DFF4CF250327D
:102110008D498E480BF01AF98D4B8E4A1B684FF093
:1021200001083B608C4B00211B688C489B1A18BF30
:1021300001238B4A85F8188A1370442217F063FF35
:102140000023884C884A20461360C5F81C3A06F0E4
:10215000EDF9029B1B68DA0709D5844B41461B68E1
:102160004046642B38BF6423636406F017FA804B43
:102170001A68984612F0020F09D00121022006F0D9
:102180000DFA7C4B1B6B642B38BF6423A367D8F814
:1021900000100320C1F3400106F000FA01210520E0
:1021A00006F0FCF9744B99F804B01A8C734B0720B5
:1021B00093FBF2F3642B38BF64231BF10001C4F8D6
:1021C000143118BF012106F0E9F999F805A008209B
:1021D0001AF1000118BF012106F0E0F999F8083062
:1021E000002B40F0588199F80930002B40F05381C2
:1021F0003968C1F38041BBF1000F03D1BAF1000F80
:1022000000D15146092006F0C9F90121042006F049
:10221000C5F995F86419062006F0C0F901210A20D5
:1022200006F0BCF9D8F800100B20C1F3800106F0CD
:10223000B5F9D8F800300C2013F0140F14BF0121A9
:10224000002106F0ABF939680D20C1F3802106F0BA
:10225000A5F939684B0507D5337A083B012B9CBF9C
:102260004FF4FA63C4F8B4320E20C1F3004106F013
:1022700095F94FF4804006F051FC68B10022032329
:1022800090F902004FF48041009301924FF4E13342
:1022900006F08EFAC5F8200AD5F8203A63B101217C
:1022A000022385F8241A85F8251A85F8261A0F20A6
:1022B00085F8273A06F072F995F8C53463F07F0384
:1022C00085F8C5341FB0BDE8F08F202323804FF47C
:1022D0008073AFE64023F9E74FF40073F6E700237D
:1022E0005BF8232001320BD10133042BF8D14C468B
:1022F000B1E632F83330002B7EF4F0ADFEF7E6BDE8
:1023000009F1010AA146F2E71740EF00E43A002084
:10231000D43A002060230020743C00209A1C002046
:10232000981C0020ED260020F9350020221A0020FC
:10233000341A0020FE350020C80F0020CC0F0020EA
:1023400018230020FC0F0020CDCCCC3E0C10002028
:10235000681800209BAE000838310020C41500200A
:1023600058120020DC000020C01500202041002071
:1023700018250020A82200203241002040420F00F2
:102380000022464B00B21A7014F02EFB444914F0A0
:102390007FFB0746B4F9A00614F026FB404914F071
:1023A00077FB0646B4F9A40614F01EFB3C4914F072
:1023B0006FFB3C490546384614F062FA0AF08FFB81
:1023C000814638460AF08BFB36490746304614F002
:1023D00057FA0AF084FB804630460AF080FB314908
:1023E0000646284614F04CFA0AF079FB8346284644
:1023F0000AF075FB49468246584614F049FB4946A7
:102400000290504614F044FB59460390384614F0AD
:102410003FFB51460490384614F03AFB4146059084
:10242000584614F035FB204D5146286008F1004015
:1024300014F02EFB04996860AE60304614F028FB5F
:10244000039914F01DFA0599E860304614F020FB5A
:102450000146029814F012FA4146286107F1004043
:1024600014F016FB02996861304614F011FB014626
:10247000059814F003FA0399A861304614F008FB9C
:10248000049914F0FDF94946E861404614F000FB58
:102490002862FEF7C2BE0121ADE600BF1D04002088
:1024A00035FA8E3CDB0FC93FC0270020000000003A
:1024B0002DE9F047B0F908308CB0DDB2382D064672
:1024C0000C460B8100F0CC8100F2B380042D00F0AB
:1024D0004A8171D8022D00F0318100F23581012D41
:1024E00000F01D815C2D00F0E38401F22D83362D78
:1024F00001F0C28401F2AB822C2D00F0888301F23E
:102500005A82222D01F0CA8401F247820A2D00F07E
:10251000AA82742D336800F00C85772D00F01685A3
:10252000472D40F0208572683046D51A0AF022F90E
:10253000052D074640F2138530460AF031F9002692
:10254000054694E80C009B1A103BAF4AAB42A846E4
:10255000B8BF9DB2D3683946DB1B9D42204688BF79
:102560009DB291460AF031F93EB9294620460AF05B
:1025700040F923685A1C22601E70D9F80C307A1971
:102580009A42D4F800A088BFDD1B0BF085F82A46DC
:10259000514638460BF0DCF8236803442360002ED4
:1025A00000F0AC800022804540F3A8802368013011
:1025B000591C21601A70F6E7202D00F0758111D8A2
:1025C000052D8FD120460B2290490AF0F4F82046C1
:1025D00008228F490AF0EFF807228E4920460AF0B8
:1025E000EAF88BE0242D00F0DE80282D7FF47AAF0E
:1025F00001250B68884E5A1C0A601D700B68204626
:102600005A190A6006221A700B685A190A600A22BF
:102610001A700B685A190A601D7031880AF0E9F8BF
:10262000718820460AF0E5F868B265810CB0BDE813
:10263000F087802D64D02FD8522D00F0548107D818
:10264000442D7FF44FAF002A58D0744B136055E0EF
:10265000542D00F04E816E2D7FF444AF704B0A680C
:102660001B88511CFF2BA8BFFF236E4D21601370E8
:10267000A968204681F3100189B20AF0BAF86A4BC2
:10268000204619880AF0B5F82968204601F30F01A1
:1026900089B20AF0AEF831E0822D00F08A800FD3C3
:1026A000A02D70D0FE2D7FF41DAF00255F4E36F8B3
:1026B0001510204601350AF09CF8042DF7D11DE0D5
:1026C0004FF6FF765A4B0A2519689F68B142A8BF9A
:1026D0003146236821EAE1715A1C226089B2204602
:1026E0001D700AF086F805FB07F1B142A8BF31461C
:1026F00021EAE17189B220460AF07BF8012593E7CF
:102700000A684C4B511C1B8821600A21FF2BA8BF73
:10271000FF2311702268511C21601370EEE70B68D3
:102720005A1C0A6000221A700B685A1C0A601D703D
:102730000B685A1C0A6024221A7075E704223E496D
:1027400020460AF038F8D9E70B6801255A1C0A60C0
:1027500002221A700B685A1C0A601D700B685A1905
:102760000A600022E8E72A46344920460AF023F8A6
:10277000334B204619780AF03CF823685A1C226033
:1027800000221A70BAE72F4B204619680AF01DF88C
:102790002D4B204619680AF018F82C4B2046196872
:1027A0000AF013F8AAE72A4B204619680AF00DF838
:1027B000A4E7284B20461A780B681A4D591C216053
:1027C0001A70254BD9880AF014F8154B22681B881B
:1027D000511CFF2BA8BFFF2321601370A96820465E
:1027E00081F3100189B20AF004F82968204601F348
:1027F0000F0189B209F0FDFF184B1A782368591CA4
:1028000021601A707AE700BF38040020FEBE01087C
:102810000ABF010813BF01083C1100209BED00080E
:10282000221A002018230020F4350020EC2200207A
:10283000FC0F0020C80F0020F4BE0108F9BE0108FB
:10284000E40A0020E8F7FF1FECF7FF1FF0F7FF1F77
:1028500068180020341A0020FE350020F9350020C9
:1028600001250B685A1C0A601D700B685A190A6012
:1028700005221A700B685A190A600A221A700B682E
:102880005A190A6000221A70B14B2268197850193F
:1028900020601170226859785019206011709A7860
:1028A00023685919216047E7AA4D0B686A78591CBB
:1028B00021601A7023682A78591C21601A702368D5
:1028C000AA78591C21601A70E988204609F091FF06
:1028D00023682A79591C21601A7023686A79591C67
:1028E00021601A700AE70B685A1C0A6000221A70ED
:1028F00004E70B685A1C0A6000221A700B68591C06
:1029000021601A70FAE600264FF6FF78924FDFF842
:1029100084920196029603960496F157481C0BD0B8
:1029200048FA06F3DA0707D5B9F800303341DB0778
:1029300002D503A80AF043FD01360B2EEDD1002687
:102940000FF20429D9E9008932464046494613F07E
:10295000E3FA002100F0010050EA010307D0F0B2D1
:102960000FF06EFD18B1314603A80AF028FD0136BC
:10297000242EE9D1794BDFF820821B78DF074FF056
:1029800000073E4642BF039B43F0010303933946D1
:1029900040460AF020FD48B1394603A80AF01BFD65
:1029A00018B1314601A80AF00AFD01360137242F7B
:1029B000EDD16B4B2046B3F8501009F01AFF694B6C
:1029C00020461988684F89B209F013FF674B2046EB
:1029D00019684A01C1F3400302F020021343C1F316
:1029E000800243EA4203C1F3C00243EA8203C1F317
:1029F000401243EAC20301F01001194309F0F9FE45
:102A0000042220460DEB020109F0D5FE23683A7836
:102A1000591C21601A70564B204619886429A8BF9A
:102A2000642109F0E6FE962D18D123685A1C226015
:102A300003221A7023687A78591C21601A700822C0
:102A4000193E96FBF2F2236882F30402591C2160BE
:102A500020461A7002A909F0AEFE4FE6002120467A
:102A600009F0C7FEEBE7434813F04EFA00233E4956
:102A700098427FF743AE5A18157922680133561CE5
:102A800026601570F4E710223B49204609F093FEBA
:102A900034E600251826394FDFF8008106FB057360
:102AA000597C31B92046013509F0A3FE082DF5D136
:102AB00024E658F8250014F0DBFF81B2F2E736F87F
:102AC0001510204609F095FE01353B789D42F6DB56
:102AD00014E62B4D2046298809F08BFE6988204694
:102AE00009F087FE0A23B5F90410204691FBF3F1A3
:102AF00089B209F07EFE01E6224B2046196809F0F2
:102B000064FE214B2046198809F073FEF6E51F4D3F
:102B10002046298809F06DFEA988204609F069FE43
:102B20002989204609F065FEE8E5194B2268997865
:102B3000501C206011705A782368591C21601A704B
:102B4000DCE500BFAFF3008090E33FF40800000035
:102B500038110020FE35002022A20108A4350020F3
:102B6000DC000020B83B00200816002018250020BB
:102B70002E1600200C160020442300208025002063
:102B80008C310020A01000201C150020BC0C00205F
:102B900070110020F6350020CC0C0020F822002017
:102BA0000021AC48036801EB41029D5C23680131C0
:102BB0005E1C26601D7003680A2913445D78236833
:102BC00003F1010626601D70036813449A78236898
:102BD00003F1010525601A70E4D18FE52168481CD6
:102BE00020600A7013F8012F002AF7D186E501252D
:102BF00023685A1C22601D7016E5974D2046A9894E
:102C000009F0F7FD6989204609F0F3FD76E5934D5B
:102C100023682A7A591C21601A70A98B204609F072
:102C2000E8FD298B204609F0E4FD698B204609F078
:102C3000E0FD2368EA7C591C21601A70E98C20466B
:102C400009F0D7FD298D204609F0D3FD2368AA7F1E
:102C5000591C21601A70236895F82020591C2160A6
:102C60001A70A98C204609F0C4FD2368EA7A591C21
:102C700021601A70E968204609F0A7FD23682A7CC4
:102C8000591C21601A70236895F82120591C216075
:102C90001A7033E5724D23682A78591C21601A7026
:102CA00023686A78591C21601A706988204609F0E7
:102CB000A0FD23682A79591C21601A70E9882046F2
:102CC00009F097FD23682A7A591C21601A7015E5CE
:102CD000236816F81510581C06EB45022060197081
:102CE0005178204601EB810101EB810101F2EE21D7
:102CF00089B209F07EFD01353B789D42E8DBFDE4B9
:102D0000564B5A7D2368591C21601A70F6E4002541
:102D1000544E56F825102046013509F056FD202D59
:102D2000F7D1EBE44F4D002306272846002107FB8F
:102D300003F6226802F1010EC4F800E01370226865
:102D400002F1010EC4F800E011708A192A4492F8C9
:102D5000C0E02268013102F1010C0629C4F800C06C
:102D600082F800E0E5D10133062BDFD10022216893
:102D70004D1C25600B7021684D1C25600A70811860
:102D800091F8E450216801324E1C0B2A26600D7028
:102D9000EDD123685A1C226007221A7023685A1C3E
:102DA000226000221A70236890F8F020591C2160DC
:102DB0001A70A3E40AF092FB002814BF0322022237
:102DC0002368294D591C21601A702988204609F072
:102DD000FCFCE968204609F0F8FC0AF05FFB0146BC
:102DE000204609F0F2FC89E4012523685A1C226080
:102DF0001D701E4B2268997850192060117022684E
:102E000019785019206011705A7849E50025236817
:102E100029465A1C22601D70236820465A1C2260D5
:102E20001D7023685A1C22601D7009F0CEFC2946D3
:102E3000204609F0CAFC61E40D4D2046298809F0BE
:102E4000D8FC6988204609F0D4FCA988204609F0FE
:102E5000D0FC53E410250020F02600203836002056
:102E6000B83100202434002038040020D43A002057
:102E7000A42D0020AB4B1A782368591C21601A70CE
:102E8000A94B9A782368591C21601A70A74B9A782D
:102E90002368591C21601A7030E4B278591C2160F3
:102EA0001A70A34B1A782368591C216000F010BED9
:102EB0009C4E236872799F4D591C21601A702B68B3
:102EC0002046198C09F095FC2B682046598C09F096
:102ED00090FC7189204609F08CFCB189204609F0EC
:102EE00088FC2B682046998C09F083FC2B682046CF
:102EF000D98C09F07EFCF189204609F07AFC318AF0
:102F0000204609F076FCFFF7F9BB874BDA78236897
:102F1000591C21601A70884B1A782368591C21604B
:102F20001A70824BDA782368591C21601A70FFF7F7
:102F3000E5BB72689A420FBF00215A1C32601978B3
:102F40007E4A20460BF05EFFFFF7D8BB72689A42BC
:102F50001DBF5A1C326019780021794AF1E7012619
:102F60008025FFF7EEBA292D2AD0392D1ED0212D2C
:102F700035D15A1C32601A46724D12F8021B304687
:102F8000697032605A782A70DA1C32609B78AB70B4
:102F900009F006FC3368E8805A1C32601A4612F8C1
:102FA000021B297132605B786B7105E05A1C32603C
:102FB0001A780A2A00F0AE874FF0FF35FFF734BBCE
:102FC0005A1C32601B780A2BF6D1304609F0E8FB18
:102FD0005D4D2880304609F0E3FB6880ECE77768B8
:102FE0005D2DA7EB030700F0B78300F25C81352D60
:102FF00000F0B58200F2B2802B2D00F067842FD84C
:10300000232D00F0948217D80B2DD5D10021112249
:103010004E4816F0F8FF102F4FF0000328BF10277E
:103020004B49BB42BFF46AAB3268501C3060107829
:103030005A1810710133F4E7252D00F03C84272D38
:10304000BAD1304609F0ACFB424D2860304609F059
:10305000A7FB6860304609F0A3FBA860FFF74EBBF2
:103060002F2D00F05D844FD82D2DA5D15A1C326034
:103070001B78394D30462B7209F092FBA8833046FD
:1030800009F08EFB2883304609F08AFB3368688399
:103090005A1C32601B78082FEB747FF62FAB30463A
:1030A00009F07EFBE884304609F07AFB0C2F288576
:1030B0007FF624AB336830465A1C32601A4612F849
:1030C000021BA97732605B7885F8203009F068FB35
:1030D000102FA8847FF612AB336830465A1C32603A
:1030E0001B78EB7209F046FB3368E8605A1C3260CB
:1030F0001A78162F2A747FF601AB9A1C32605B781F
:1031000085F82130FFF7FABA312D00F02284332DF3
:103110007FF452AF5A1C32601A780F4B5A75FFF782
:10312000EDBA00BFBA3B0020F02600206411002059
:10313000582C0020102500208827002079ED000859
:10314000DDEC0008FE3500203C1100200C160020AC
:1031500008160020BC0C002038360020482D00F056
:10316000A68339D83C2D3FF4C9AA23D8372D7FF444
:1031700023AF0723B7FBF3F3C3EBC302BF1A7FF4FC
:103180001BAFDFF874A35FFA83F8FBB298453FF4F6
:10319000B5AA002533685A1C326093F900300AEB57
:1031A000C50999F902209A4200F0DE860135042D06
:1031B000F5D101E73E2D00F0AE81412D7FF4FCAE4C
:1031C0000023C2493268501C306012785A540133CF
:1031D000082BF7D1FFF792BA4E2D00F07E8320D84E
:1031E0004C2D7FF4E9AE5A1C32601A46B84D12F8E5
:1031F000021B3046297032605B786B7009F0D0FAA0
:10320000336868805A1C32601B7830462B7109F095
:10321000C7FA3368E8805A1C32601B782B72FFF7BC
:103220006DBA512D00F02E835B2D7FF4C5AE5A1C74
:1032300032601A46A74D12F8021BA74FA9703260E0
:103240005978A64A30461170DA1C32609A783A7181
:103250001A1D3260DB78042BA8BF0423BB7009F071
:103260009FFA96E80C009B1A012B388003DD30464C
:1032700009F096FAF881336872689A4206D05A1CAF
:1032800032601B78003318BF0123EB710BF0DEFEB8
:10329000336872689A423FF431AA5A1C32601B7834
:1032A000FB70FFF72BBAD42D00F0C98100F28980A2
:1032B000CC2D00F07B8168D8612D00F0928241D83E
:1032C0005F2D7FF479AE304609F06AFA304609F096
:1032D00067FA304609F064FA3368814D9A1CD5F8D4
:1032E000008032605A78304688F82F20DA1C32602D
:1032F0009A7888F83A201A1D3260DA78073388F80D
:103300003B20336009F04CFAA8F83E003046D5F86F
:10331000008009F045FA112FA8F83C002B460CD983
:1033200032682868511C3160114611F8025B80F840
:1033300031503160527880F8322018680FF04EF921
:10334000FFF7DCB9C82D00F09880CA2D7FF434AEA9
:10335000634B1868034600F11E0532680333511CA5
:103360003160114611F8027B03F8037C316051781B
:1033700003F8021CD11C3160927803F8012C9D42A5
:10338000EBD10FF02BF9FFF7B9B9CE2D00F06E821B
:10339000C0F06182D02D00F05182D22D7FF40CAEAE
:1033A0005A1C3260187806065ED44E4B1B78DD0737
:1033B0003FF5A4A9032828BF00200BF07FFDFFF7ED
:1033C0009DB9DC2D00F0B68125D8D92D00F08E8175
:1033D00013D8D62D7FF4F0AD0025434FDFF81C81C4
:1033E0003B789D42BFF68AA9304609F0D9F913F01F
:1033F000F7FA48F825000135F2E7DA2D00F085816B
:10340000DB2D7FF4D9AD364B4A223849186814F0C9
:10341000C9F9FFF773B9EF2D72D014D8DD2D00F084
:10342000AB82DE2D7FF4C8AD304609F0B9F92A4DE4
:103430002882304609F0B4F96882304609F0B0F9C4
:10344000A882FFF75BB9F22D00F02581FA2D7FF4F9
:10345000B3AD244B1B78DB073FF5AEAD0BF044FD5D
:103460000BF06EFEFFF74AB900F07F00032828BF7B
:10347000002012F0B7FCFFF741B9C7F34707122F3E
:103480003FF69AAD00250DF10C08BD420CDB002380
:10349000174A03A99F420ED10021154A122B10D1C1
:1034A0000125144BFFF7A7BB304609F079F928F83E
:1034B00015000135E9E731F8130022F81300013354
:1034C000E8E722F813100133E8E700BF38360020A0
:1034D000B8310020BA3B002068230020582C00207F
:1034E00010250020A4350020F422002054B001084B
:1034F000EA290020E8290020324100205825002038
:10350000304609F04DF9C04DA881304609F048F920
:103510006881FFF7F3B85A1C32601A46BB4912F8AB
:10352000020B887032605B784B70FFF7E7B85A1C6B
:1035300032601D78132D3FF63FAD00210C279A1CF9
:1035400032605A78DFF8ECE207FB01E090F808C03F
:10355000944500F0EE8401312429F5D12CE55A1C64
:10356000326019780E293FF627AD9A1C32605D78DB
:10357000032D3FF621AD06224A43A54881184D711F
:10358000DD1C35609D7885541A1D3260DA784A70EA
:103590005A1D32601A798A709A1D32605A79CA703F
:1035A000DA1D32609B790B71FFF7A8B8092F7FF6FF
:1035B00003AD98495A1C0D6832601A4612F8020B86
:1035C0008846287032605B78681DAB700023022B40
:1035D0000CBF4FF0FF0E4FF0640E316801334A1CF0
:1035E00032600A787245A8BF7246032B00F8012B9F
:1035F000EDD18B1C33604B783046642B28BF64239D
:103600002B72CB1C33608B78EB700B1D3360CB7847
:103610002B7109F0C5F80A2F68810CD03368D8F8EF
:103620000020591C316019780B2F51721FBF991C53
:1036300031605B7853700EF053FFFFF75FB80F2FC8
:103640007FF4BAAC5A1C32601D78072D3FF6B4AC3B
:103650000C27304609F0A4F86F43DFF8DC8108EB53
:103660000705A880304609F09BF8E880304609F04D
:1036700097F8336828815A1C32601A4612F8021BE8
:103680003046A97232605B78EB7209F073F848F843
:103690000700FFF733B85A1C32601A780F2A3FF63A
:1036A0008BAC991C31605D785B48C2EBC2028554DB
:1036B0008118DA1C32609A784A701A1D3260DA7802
:1036C0008A705A1D32601A79CA709A1D32605A790E
:1036D0000A71DA1D32609A794A7103F10802326088
:1036E000DB798B710CF072FFFFF708B8304609F0F8
:1036F00057F84A4D2880304609F052F86880304625
:1037000009F04EF8A880FEF7F9BF19465A1C32603E
:1037100011F8020B424A10703160597830465170EE
:10372000D91C31609B78937009F03AF83B4BD880F4
:10373000FEF7E4BF5A1C32601A463A4912F8020BEF
:10374000087032605978304A9170DA1C32609A7889
:10375000354B9A70FEF7D2BF5A1C32601B78334D3E
:10376000DFF8C0803046D5F8009088F8053009F0C1
:1037700017F8A9F820003046D5F8009009F010F8A5
:10378000052FA9F8220023D9304609F009F8A8F836
:103790000A00304609F004F8A8F80C003046D5F8C5
:1037A000009008F0FDFFA9F824003046D5F80090FD
:1037B00008F0F6FF0D2FA9F8260009D9304608F0C9
:1037C000EFFFA8F80E00304608F0EAFFA8F8100056
:1037D0000BF03CFC11F028FE28680EF0BDFFFEF750
:1037E0008DBF5A1C32601A46074912F8020BC87086
:1037F000326059780E4A1170DA1C32609A780A4B9E
:10380000DA70FEF77BBF00BFF026002070110020A9
:103810001C190020AC2D0020862B0020A42D002098
:1038200080100020BA3B00206411002010250020E9
:10383000882700209CAE0108F82B0020B44B1B7891
:10384000D8073EF55BAF0BF04DFE0BF04DFB0BF0D8
:1038500077FCFEF753BFAE4B1B78D9073EF54EAF52
:103860004FF4C872AB4B1A80FEF748BFA84B1B78C9
:10387000DA073EF543AFA84A137843F00403137008
:10388000FEF73CBFA54A1278012A3EF637AF19462B
:103890005A1C326011F8020BA14A907031605978BD
:1038A0001170D91C31609B785370FEF727BF09F067
:1038B00031FFFEF723BF00239A4D30462B6008F0FE
:1038C00059FF2B6818432860FEF718BF5A1C326056
:1038D0001A78954B1A70FEF711BF5A1C32601F7888
:1038E000112F3FF669AB9A1C32605B788F4D3046E2
:1038F00005F8173008F054FF40F6CA039842A8BFF5
:10390000184640F2EE239842B8BF18461923A0F299
:10391000EE2090FBF3F005EB47056870FEF7EEBE76
:10392000834D05F14007304608F03AFF3368A5F8AB
:1039300080005A1C32601A4612F8021B043585F8C2
:103940007E1032605B7885F87F30AF42EBD1FEF7B6
:10395000D5BE5A1C32601D781F2D3FF62DAB052FAA
:103960007FF42AAB304608F005FF714B43F8250081
:1039700011F0CCF8FEF7C2BE5A1C32601A4612F89B
:10398000020B3260DA1C597832609A7811F03EF8F6
:1039900000287EF4B3AEFFF70FBB262D3FF4B7A887
:1039A0002A2D7EF4B6AD604B1A782368591C21602D
:1039B0001A70FEF7A3BE302D3FF4A9A91BD82E2DF7
:1039C0007EF4A7AD5A4D05F14006B5F880102046AB
:1039D00008F00FFF236895F88220591C21601A70A7
:1039E000236895F883200435591CB54221601A706C
:1039F000EBD1FEF783BE322D3FF482A9342D7EF445
:103A000088AD4C4B03F15A0122685879551C25604A
:103A1000107022681878551C25601070226858783C
:103A2000551C2560107022689878551C2560107010
:103A30002268D878551C25601070226818790633E2
:103A4000551C994225601070DED1FEF757BE462DF9
:103A50003FF4B0A919D83B2D3FF4C9A808D83A2D96
:103A60007EF457AD0021204608F0AFFEFEF746BEBB
:103A70003D2D3FF45AA8402D7EF44BAD08222E492F
:103A8000204608F098FEFEF739BE4F2D3FF4BEA940
:103A90000AD84B2D3FF4FEA84D2D7EF43AAD0025FB
:103AA000264F224EFFF728B9502D3FF49DA95A2DDD
:103AB0007EF42FAD224E2368F278002A3FF4EDA960
:103AC0005A1C226008221A7023685A1C22600122A4
:103AD0001A701C4D23682A79591C21601A702368BA
:103AE000AA78591C21601A702988204608F081FEA6
:103AF000E989204608F07DFE2368F279591C21608F
:103B00001A702368EA78591C21601A70FEF7F6BD16
:103B1000A43500209A1C0020ED2600206023002000
:103B2000D43A0020681800201C250020E92A002033
:103B3000243400201C19002038360020D829002009
:103B4000BA3B002068230020702D3FF429A800F222
:103B5000E180672D3EF497AF00F28A80602D3FF43C
:103B6000D4A94FD85E2D7EF4D4AC0021204608F0B5
:103B700040FE0021204608F03CFE0021204608F0CF
:103B800038FE2368AE4D5A1C226000221A702B6842
:103B900093F82F102368581C206019702B6893F835
:103BA0003A102368581C206019702B6893F83B105A
:103BB0002368581C2060197023682046591C216016
:103BC0001A702368591C21601A702368591C2160DF
:103BD0001A702B68D98F08F00CFE2B682046998F3D
:103BE00008F007FE2B6893F831202368591C2160E8
:103BF0001A702B6893F832202368591C21601A70C0
:103C0000FEF77CBD652D3EF47EAE662D7EF481AC64
:103C10008C4E0025328AB2F5007F8CBF0427012725
:103C20007319596B204691FBF7F1043589B208F0FE
:103C3000E0FD0C2DF4D10125834E844F396A56F8EE
:103C4000250012F0D9FF13F013FF013581B2204691
:103C500008F0CFFD042DF1D100257D4E36F825105A
:103C60002046013508F0C5FD032DF7D1FEF746BD0E
:103C70006C2D3EF42EAF0AD8682D3EF40AAF692DA4
:103C80007EF447AC0025734F734EFEF71EBF6D2DBB
:103C90003EF432AF6F2D7EF43CAC704D2B681A7839
:103CA0002368591C21601A702B689A782368591C64
:103CB00021601A7000232A681A445179226801335E
:103CC000501C032B20601170F5D12B6820461A7A06
:103CD0002368591C21601A702B68DA782368591CF4
:103CE00021601A702B681A792368591C21601A7098
:103CF0002B68598908F07DFD2B685A7A2368591C76
:103D000021601A702B685A782368591C21601A7038
:103D1000FEF7F4BC7E2D3FF4ADA825D8782D6DD0EC
:103D200005D8752D7EF4F5AB4D4BFEF75BBF7C2DB2
:103D30003FF482A87D2D7EF4ECAB4A4B22681978C3
:103D4000501C2060117022685978501C206011703E
:103D50009A7823682046591C21601A70424BD988F2
:103D600008F047FDFEF7CABC962D3EF4CCAD14D842
:103D70007F2D3EF4D7AF832D7EF4CBAB3B4D204659
:103D8000298A08F036FD698A204608F032FDA98AA2
:103D9000204608F02EFDFEF7B1BCF02D3EF42DAF0D
:103DA000F12D7EF4B6AB324B03F170012268187826
:103DB000551C2560107022685878551C25601070BD
:103DC00022689878551C256010702268D878551C98
:103DD0002560107022681879551C256010702268C3
:103DE0005879551C25601070226898790733551C46
:103DF0008B4225601070D9D1FEF780BC1D4D05F1B6
:103E00006006A988204608F0F4FCE988204608F0FE
:103E1000F0FC2989204608F0ECFC2368AA7A591C9A
:103E200021601A702368EA7A591C21601A7055F8CB
:103E30000C1B204608F0C9FCB542E2D1FEF75EBC7F
:103E400010250020A822002020410020CC3B00208B
:103E500088330020D8290020CC350020AC2D00204C
:103E60002CA2010880100020A42D0020682300202F
:103E7000862B0020F82B00204B4D4C4F05F12006DF
:103E8000002395F90220D957914226D00C33302BCC
:103E9000F9D10835B542F3D1FEF730BC444D05F1F8
:103EA000500628780AF09AFF2368027A591C21608C
:103EB0001A7023686A78591C21601A702368AA78DE
:103EC000591C21601A702368EA780435591CAE42E7
:103ED00021601A70E5D1FEF711BC23682046591CF9
:103EE00021601A70298808F084FC2368EA78591C3C
:103EF00021601A7023682A79591C21601A7023687E
:103F0000AA79591C21601A7023686A79591C2160AA
:103F10001A70BEE79A1C32605978264A1170D91C73
:103F2000316099785170191D3160DB789370FFF71B
:103F300043B801781E4A002002F82510D91C3160D0
:103F4000997802EB85025170191D3160D978917012
:103F5000591D31601B79D3700EF038FA164B80F082
:103F600001001870FEF7CABB89F80230304608F02D
:103F700017FC33682AF8350019465A1C326011F8CC
:103F8000022B013789F8032031605A7889F8042020
:103F9000DA1C32609A7889F806201A1D3260DB78C4
:103FA00089F80530FFF7F1B8324100205841002070
:103FB0007C18002038110020000000202DE9F04F6F
:103FC000B34B9DB01B780690012B07D1B149B24A83
:103FD0000968C9691180B14909885180B04D2A78B2
:103FE000002A00F0D384072B40F0F8810DF054FB39
:103FF0000790AC4F3B68059713F4806F05D0AA4833
:10400000836813B100F144019847A84BA8491B6885
:10401000B1F906405A890891944280F2E2814FF04A
:104020007E536B6095F90C304FF00009002B14BFE4
:1040300001234FF0FF339F4A95F809B0168B95F88E
:1040400008A09D4F04930992089B33F91980A8EBAF
:1040500006000028D8BFA6EB0800B0F5FA7F82F270
:104060003D83B9F1020F02F03F83824580F2CC819B
:10407000A0EB0A0012F0B8FCB04547F82900C2F2E4
:10408000418309F10109B9F1030FDDD1059B1F68D7
:1040900017F4805800F0BA81B4F5FA6F2046A8BF33
:1040A0004FF4FA60B0F57A7FB8BF4FF47A70A0F59C
:1040B0007A724FF0640C92FBFCF38049581C31F982
:1040C00013E031F91000DFF8F091A0EB0E016FF072
:1040D000630000FB0320484390FBFCF0704400B2F7
:1040E00012F082FC8246C9F80C00B8F1000F1DD016
:1040F0001D200EF0A5F9C8B1714BDB78B3B9714939
:10410000504612F0BBFB12F09FFE4FF47A7300B2E0
:10411000000390FBF3F3C6F5FA6000B2584340F396
:104120000F30304412F060FCC9F80C00664B1E885A
:1041300072063BD5654BB3F904000A2390FBF3F0FC
:10414000EB89C01A00B212F04FFC614912F0A0FCDA
:104150006049054612F094FB08F0C1FC83462846EE
:1041600008F0BDFC544D81462B685946184605930E
:1041700012F08EFCD5F804A004905146484612F087
:1041800087FC049A0146104612F078FB59462860D5
:10419000504612F07DFC059B82461946484612F0B7
:1041A00077FC0146504612F06BFB68604A4B3C4D71
:1041B0001B6813F0140F1AD016F4027F17D0474B68
:1041C000DFF8F490197811F0100100F034812B7CA5
:1041D0006869002B0CBF01234FF0FF33584312F0E6
:1041E00003FCD9F8041012F04BFBC9F804003C4B57
:1041F000DFF8C0901A780593A2B1B9F81A30A3423B
:1042000010DB384B1B78012B01D0192B02D1364A19
:10421000927B3AB90E2B05D0082B1FBF0023264AEC
:10422000EB63936095F84240002C65D0B30763D0F0
:104230002E4B2F491E6A304612F0D2FD002840F066
:104240004A81304613F08CFC696C12F021FC13F0AB
:104250000FFCB0F5617FA8BF4FF4617012F0C4FB92
:10426000244912F015FC08F03AFC0646204612F0EC
:10427000BBFB314612F00CFC13F0FAFB00B212F05B
:10428000B3FB0D4C0146E06812F0FAFAE06033E04F
:1042900014250020A41B0020EC2200202E16002054
:1042A000781000200C360020CC3B0020AC2D0020E4
:1042B000CC35002038360020381A0020B02D0020E0
:1042C0001036002000007A44F63500208C310020A2
:1042D00035FA8E3CDB0FC93F18250020ED26002063
:1042E000000000201C2500207A2C00204C310020EA
:1042F0008FC2753CD06D393A95F848A099F81F40A7
:10430000BAF1000F5CD0794B0420D3F8EC6044F68E
:1043100020639E42A8BF1E46B6F57A7FB8BF4FF411
:104320007A76B6B2A5F84A600EF08AF808B9FF00AE
:1043300046D54FF47A73B6FBF3F6642393FBF6F697
:10434000DFF8BCB1142EA8BF1426DBF80030B8F19A
:10435000000F00F0C280DF8E7F086549EB6CD1F85A
:104360000C805A1CEA6405EB430340460892049310
:1043700012F06AFD089A049BB242A3F85000A4BF51
:104380000023EB64EB6C05EB4303B3F9500012F030
:104390002BFB0146404612F071FA12F055FD00B2B7
:1043A0000028B8BF4042B84240F39A80DBF80030A2
:1043B000188F12F019FB4F4912F06AFB059B5860E9
:1043C00099F81E30002B00F0BE81022B00F09A807D
:1043D000032B00F08C81484B588898E0002307930A
:1043E00007E6B4F5FA6F187ABFBFA31A5843C2F5AF
:1043F000FA6290FBF2F0C0F1640012F0F5FA3F4966
:1044000012F046FB68600DE6002033E6099B598BED
:104410008C420EDBB4F5FA6F2046A8BF4FF4FA6069
:104420004FF47A72401A5043C1F5FA61B0FBF1F2D1
:104430003FE60846F4E7B5F9183095F80BE0A87A9E
:10444000E21ABEF1000F2BD0002AB8BF52428242BE
:1044500010DD01229C42E96185F82020C8BF40425E
:1044600012F0C2FA0146D9F80C0012F009FAC9F8A4
:104470000C00BCE695F820201AB1AA6A85F8201035
:104480006A6268691844B0F5FA6FA8BF4FF4FA6021
:10449000B0F57A7FB8BF4FF47A7012F0A5FAE6E76C
:1044A00082EAE271A1EBE271814209DD022192FB15
:1044B000F1F2EA62012285F8302085F82020E0E759
:1044C00095F82020002ADCD0AA6A85F830E06A62DC
:1044D00085F820E0D5E70020D0E6B3F936703CE758
:1044E0004FF07E53059A53606AE700BFDC0000205E
:1044F000381A00206F12833AD82900200AD7233CAB
:1045000010250020B5F84A0000F57A7080B2023418
:10451000E4B2BAF1000F00F0FF80002800F0FC8048
:104520008D4B00261B688D4FB0FBF3F000B2A5F851
:10453000780012F059FA01464FF07E5012F05CFB01
:104540008046DFF8209207F1100AA642C0F2D78019
:10455000834B1B78092B11D1824B834E186813F0C3
:1045600087FA824B3080D3F8EC004FF47A7390FBDB
:10457000F3F012F039FA12F067FC7080B5F9783078
:10458000002B40F3E28000273E46DFF81482DFF87C
:10459000D4A1A8F11009A742C0F2C48095F8483010
:1045A0000024002B18BF0226714BDFF8F891D3F8D6
:1045B00000806B4B1B78089308F105030993B44204
:1045C00040F3F280089B6B4C092B07D1664EB4F880
:1045D0007830606BB38012F037FCF080664B93F854
:1045E0002160002E60D01E200DF02AFF00285BD035
:1045F000624B1B88580657D494F8B430B34214D099
:1046000084F8B460304612F0EFF95D4912F040FAD8
:104610005C49064612F034F908F061FA5A4B98608A
:10462000304608F05CFAC4F8B800059B6E6BD3F80E
:1046300008903046494612F02BFAD5F83C80D5F860
:10464000B87082463946404612F022FA014650467A
:1046500012F014F94D49824612F0C2FB08B9DFF896
:104660002CA14B49504612F0C5FB08B9DFF820A138
:1046700049464046C5F834A012F00AFA3946804649
:10468000304612F005FA0146404612F0F9F83F496B
:10469000064612F0A5FB00B93C4E3D49304612F0EB
:1046A000A9FB00B93A4EEE63002384F84830394B39
:1046B0001B78002B40F05D81374DAA78002A00F06E
:1046C0005881364C2378013B0D2B00F23F81DFE807
:1046D00013F0110124012E0123023D013D013D0291
:1046E00051026C0589059A05B905C405CD0599F8EF
:1046F0002000C0EB401300EB8300C00006E75AF82F
:10470000261059F8260012F0B9F8414612F0C0F907
:1047100047F82600013618E7B5F87830013BA5F8D0
:1047200078302BE758F8270059F8271012F0A8F82E
:10473000022F3E46B8BF022648F827004AF8270055
:10474000F6B2013727E7A5F8783095F84830002B06
:10475000ADD0002622E700BFF8240020F41000208E
:1047600014250020381A0020EC220020DC00002054
:10477000AC2D00207810002038360020F6350020BF
:1047800035FA8E3CDB0FC93F0000002000C0F94421
:1047900000C0F9C4C4260020D43A002060230020C1
:1047A000041100200AD7233C022C15BF98F8000002
:1047B00098F8010098F802B098F809B012F014F9CE
:1047C000494612F065F94FF08041074612F01CFB94
:1047D00060B14FF08041384612F050F8AA4912F00B
:1047E00057F90146384612F04BF80746A3000493E8
:1047F000A64BA74953F8240012F04AF920F00043D1
:10480000A44A0493049B42F824000C32824642F8E6
:104810002430BBF1000F20D0584612F0E5F849468D
:1048200012F036F983465146504612F031F9049998
:1048300012F02EF9594612F02BF959460A904FF012
:104840007E5012F01BF80A9A0146104612F018F832
:104850000146504612F01CF982468F49384612F044
:1048600017F9514612F014F9099B074613F8010B8A
:10487000099300B312F0B8F8494612F009F9049907
:1048800012F006F98549824612F0BEFA68BB002193
:10489000504612F09BFA50BB51464FF07E5011F03B
:1048A000EDFF01464FF07E5012F0A6F90146384662
:1048B00012F0EEF80746089B0C2B05D1384612F093
:1048C000C3FA774B23F814007649384612F088FA79
:1048D00000B9744F7449384612F08CFA00B9724F1F
:1048E000724BA200D750013469E64946DAE74FF02F
:1048F0007E51D7E76E4B1B78D90707D5802010F083
:1049000023FF08B103F03CFF12F008FD1F200DF05B
:1049100097FDD8B10C23237018E00022654B1A6074
:10492000654B1A60654A12685A600323F3E710F07A
:1049300097FA614E614B1A6873686433934205D2EB
:10494000402010F065FA002800F0C28010F0B0FAA4
:104950000646002800F0918423780C3B022B08D9EE
:1049600001232370564B93F8FB2012B1002283F8E9
:10497000FB20544B1B78072B05D10CF08DFE079BB9
:10498000C01A474B988000224D4B1A704D4F3B7810
:10499000072B40F0CC840CF07FFE07904A4C6368F4
:1049A00020469847A246002855D00026B4F8A850C3
:1049B00084F84960DFF81491002D40F00185E26A27
:1049C000B4F9243094F84A109B1AA363226BB4F90B
:1049D000263004F138009B1AE363626BB4F9283087
:1049E00004F134089B1A23640AF0E4F84C46DFF81B
:1049F000B0900AF5707658F8040F11F0F5FFDAF868
:104A0000201012F045F83B788346082B03D113F0B1
:104A10002FF829F815005946DAF8BC333046984784
:104A2000DAF84434014606F1880098473B7883461B
:104A3000032B03D113F01CF829F81500DAF8AC3079
:104A40005946D8F8780398470135032D44F8040FE8
:104A500006F12C06CFD11B4C2278072A05D10CF089
:104A60001BFE079BC01A0E4B1880154B93F80121B3
:104A70001D460592002A00F07185013A83F8012154
:104A80001DB0BDE8F08F00BFD7A36841381A0020E1
:104A90006F12033B1411002000004843A4707D3FB7
:104AA000EC22002000C0F94400C0F9C4AC10002082
:104AB000A4350020D03A0020EC240020801B0020E8
:104AC0007810002014250020CC3B0020204100203D
:104AD000DFF864834027C246DFF86093336818F834
:104AE000030068B110F062FAD9F80030013F03F119
:104AF000FF33C9F80030336803F101033360EDD1AF
:104B000033681AF80330002B7FF420AF33604FF086
:104B1000FF3373600423FEE610F0A2F9934A50219C
:104B2000A2F10C0301932623029200934920A2F1E3
:104B30000A03163A07F050F900287FF407AF4FF048
:104B4000FF328B4B18605A600723E4E610F088F9B7
:104B5000052300210093874B02910191A3F10802E4
:104B6000532007F039F900287FF4F0AE804B18602D
:104B70000823D0E610F074F97F4B804E186812F0CD
:104B800077FF8046D6F8BC0012F072FF81464020C5
:104B900010F03EF9314600287FF4D8AE744E784FBD
:104BA00033687878492B01F28D85DFE813F04A00ED
:104BB00050005E00650069006E00730078007D00A3
:104BC0008400890095009F00A400AF00B400B900E4
:104BD000BE00C600CE00D600490151015901610155
:104BE000690176017F01880191019A01A301AC015D
:104BF000B501BE01C401CD01D301D901DF01E50139
:104C0000EB01F201F901000206020C0213021A0282
:104C1000200226022C02320236023A023F024402ED
:104C200049024F02AB02B802BD02C202C702CC0267
:104C3000D102D702DC02E102E602EB02F002F50249
:104C4000F902504A5049514806F0D6FD09E0504B50
:104C50004C4A01934F4B504900935048504B06F03B
:104C6000CBFD33680133336070E64E4B4E4A4F49FB
:104C70004F4806F0C1FDF4E74E4A43494E48E3E78A
:104C80006B782A784D494E48F3E74E4B4E491A8AC5
:104C90004E48D9E74B4B4C495A8A4D48D4E74FF020
:104CA0007E524C494C48CFE71FFA89F31FFA88F22D
:104CB0004A494B48DDE74B4B4B491A8A4B48C3E7FF
:104CC0004B4B1B68DA0404D591F8C020494846498B
:104CD000BAE70C233360C4E7474948488B784A78E1
:104CE00009780091464906F087FDBAE7454B3E49F1
:104CF0001A884548A8E7404B5B79012BB1D1B1F93F
:104D0000C430B1F9C62041483449B2E7404B2E497E
:104D10001A68404898E7404B2B499A783F4893E7F8
:104D20003F4B29491A783F488EE70C2303FB0011BB
:104D30003D4891F8C820244986E70C2303FB001165
:104D40003A4891F8CA2020497EE70C2303FB001162
:104D5000374891F8C9201C4976E70C2303FB001162
:104D6000344891F8D12018496EE700BFD6A2010857
:104D7000EC24002090A4010880230020781000205B
:104D8000081600201DBF010892CC010829BF0108A8
:104D90005DBF010813BF01083DBF01084BBF0108FB
:104DA00037BF01080ABF0108FEBE0108A4CE0108F2
:104DB00062BF01080C16002070BF01087BBF01080C
:104DC00081BF010868230020F5CE01088CBF0108CF
:104DD00098BF0108ABC50108A4BF01087BC001084A
:104DE000AFBF0108A822002093CE0108BBBF010875
:104DF00064230020C2BF0108FE350020D6BF010891
:104E0000CDBF01087E230020E6BF0108EEBF0108E8
:104E100020410020FCBF0108BA3B002005C001086A
:104E2000582C002015C0010827C001082FC0010818
:104E300037C0010843C0010860A20108D03A002031
:104E40000C2303FB0011844891F8CB208349FBE637
:104E50000C2303FB0011824891F8CC207F49F3E634
:104E60000C2303FB00117F4891F8D0207B49EBE62F
:104E70000C2303FB00117C48B1F8D2207749E3E60C
:104E80000C2303FB001191F8CE3091F8CD2091F85E
:104E9000CF1076480091764925E7764B7648196819
:104EA0004B780A788978009171491CE7714B7348F7
:104EB00019680B79CA78497900916D4913E76D4BF0
:104EC0006F481968CB798A79097A009168490AE7AD
:104ED000684B6C4819688B7A4A7AC97A00916449A0
:104EE00001E7644B684819684B7B0A7B897B00911A
:104EF0005F49F8E65F4B654819680B7CCA7B497CC3
:104F000000915B49EFE65B4B61481968CB7C8A7C7A
:104F1000097D00915649E6E6564B5E4819688B7D3F
:104F20004A7DC97D00915249DDE6524B4B491B68D1
:104F300059481A7E88E64F4B584819680B7FCA7E3D
:104F4000497F00914A49CEE64A4B44491B68544880
:104F50009A7F79E6474B41491B6852481A8C73E6A1
:104F6000444B3E491B6850485A8C6DE6414B3B49C7
:104F70001B684E489A8C67E63E4B38491B684C4884
:104F8000DA8C61E63B4B35491B684A4893F8282088
:104F90005AE6384B31491B68474893F82F2053E6AF
:104FA000344B2E491B68454893F830204CE6314B72
:104FB0002A491B684248DA8E46E62E4B27491B6871
:104FC00040481A8F40E62B4B24491B683E4893F813
:104FD0003A2039E6274B21491B683C4893F83B208F
:104FE00032E6244B1D491B6839489A8F2CE6214B29
:104FF0001A491B683748DA8F26E61E4B17491B688B
:1050000035485A8D20E61B4B14491B6833489A8D4E
:105010001AE60A7A3248114916E64A7A31480F49A7
:1050200012E6314B0D49DA7830480DE62E4B0B492C
:105030001A792F4808E62C4B08495A792D4803E67F
:10504000294A2D49D3892D48528912E6264A2A49F0
:10505000138A2B4892890CE64FC00108F5CE01084F
:1050600057C0010860C0010869C0010881C001087B
:1050700078C001081025002087C001088FC00108F2
:1050800098C001089FC00108A6C00108ADC0010872
:10509000B5C00108BDC00108C6C00108BFC00108F5
:1050A000CDC00108DFC00108ECC00108F7C001084D
:1050B00006C1010819C1010826C1010834C101084F
:1050C00045C101085CC101086EC1010888C1010821
:1050D0009EC10108ACC10108B6C10108C3C10108E5
:1050E000CCD90108D4C10108BA3B0020E1C10108B4
:1050F000EAC10108FCC101087BC001080CC201081B
:105100001AC201088C4B188811F06EFC8B4911F003
:10511000BFFC11F099FE8A4902468A4894E5864B05
:105120008749DA7888488FE5884B85491A78884816
:105130008AE591F8EF208748814985E591F8F820C4
:1051400085487F4980E5854B7D499A7F84487BE58A
:10515000824B7B4993F82020824875E57F4B784944
:105160009A8C814870E57D4B75491A7A7F486BE5CA
:105170007F4B73491A797F4866E57D4B70499A7871
:105180007D4861E57A4B6E491A887C485CE5784B2E
:105190006B49DA897A4857E5BA786949794853E51D
:1051A000794B67491A6879484EE51A200DF048F99D
:1051B000A0B1774B1B888BB9764B14A91B680E20C6
:1051C0001493069B159306F063FB4FF48052724BC9
:1051D0001A800A232370069806F0A8FB06F038FB15
:1051E000FFF7B4BB6D4B1B78002BF4D01A200DF0E9
:1051F00027F90028EFD16A4B93F8FB30002BEAD156
:1052000009232370EAE7674B1A68674B5B68C8336A
:10521000934211D2AB78032B0BD1644E306803F06C
:105220009BFA00233360624B1B78022B01D103F001
:1052300097FC0123FFF76FBB12F07AFA0028E9D13F
:10524000FFF784BB012A01D108F064FA0D23132073
:10525000237010F0F7FDFFF779BB012A04D108F0A5
:105260003DF900283FF472AB0E23F0E71F200DF04C
:10527000E7F800287FF46AABDBE7EB78002B3FF41C
:1052800078AB00274FF0010AB9464A4B1B68DB0494
:105290004BBF494B364BB3F804B0B3F814B0584683
:1052A00011F0A2FB454B014653F82700D04611F000
:1052B00083FD00B1C846013746EA0806082FF6B25A
:1052C000EDD1384B364F1B68BEB103F59C53083304
:1052D000C7F8FC302378012B7FF44BAB97F8FB30F9
:1052E000002B7FF446ABAB78032B19D012F016F8E5
:1052F000012387F8FB30FFF73CBBD7F8FC209A422C
:10530000E8D82378012B3FF434AB97F8FB30002B1F
:105310003FF42FAB06F018FE87F8FB60FFF729BBC0
:10532000802010F011FA00287FF423ABDEE7002381
:105330000793FFF733BB00BFF02600200000C842F0
:10534000F5CE01082CC2010837C2010888270020C9
:1053500044C2010852C201085FC201083836002069
:1053600075C2010886C20108A0C20108BAC20108BC
:1053700068230020CCC20108DDC20108F0C2010888
:10538000FFC2010810C30108681800201BC30108F0
:105390005C23002058230020542300201E250020D9
:1053A00078100020801B0020EC240020DC3A002034
:1053B000F52400200C360020A42D002058250020C4
:1053C0005E4BD9F800205B78059608934FF47A730A
:1053D000B3FBF2F3C3EB431203EB8203DB009BB29C
:1053E00004933B7804F12C070993554BB3F90690CD
:1053F000049B5B080A93049B9D4201BF00237B63CF
:10540000E3673B604F4BF318B3F924007B6B034415
:105410007B6311F0E9FAE26F02F10108B8F1010FC4
:10542000C4F87C8007D10023012D2067E066636704
:105430005DD1002030E0D4F86CA00C9251460B9066
:1054400011F01CFA8346404611F0CEFA0146584648
:1054500011F0D2FB514611F013FA0B9B0146824624
:105460002067184611F00AFA594611F011FB616FD6
:1054700011F006FA012D8346A067C4F86CA060679E
:105480000C9A34D1B8F1010FD3DD104611F0ACFA0B
:105490000146584611F0B0FB12F0AAFD099B804668
:1054A000032B05D112F0E4FA01230FFA80F90593DA
:1054B000089BABB1184611F097FA414611F086FCF3
:1054C00070B1059B13B11E4BA3F806901E4809F05E
:1054D00061FB00221D4B5A609A60DA60FFF7BBBA8D
:1054E0000A9A7B6B1344049A93FBF2F33B600236F7
:1054F000062E07F1040704F114047FF47CAF059B2A
:1055000013B10F4BA3F80690012D0FD10022104BC1
:105510001B689A621A63DA620E4B93F8003113B17A
:105520000D4B1B8813B9012010F08CFC054AB2F812
:10553000A830013BA2F8A830CBE700BFBA3B00205F
:10554000EC220020CC3B0020743C002020410020B5
:10555000A41B00207810002034360020AC4B5B796F
:10556000002B00F03184AB4B1B78013BDBB285F89C
:1055700001312378072B40F02A840CF08DF80B9032
:10558000A54B4FF07E501B6807936B680D93D5F8C1
:10559000043119460A9311F071F9A04B196811F002
:1055A00077FA4FF07E510C9011F01AFC10B94FF0C1
:1055B0007E530C939A4B002509939A4B9A4C08936F
:1055C00000230493049BDFF8B0929E0059F82370E7
:1055D000049A964B294653F82280404611F0ECFB82
:1055E000E8B9049B09F1D40959F823903846494693
:1055F00011F044F9824620F00041404611F0E6FBEC
:1056000058B12946504611F0FFFB002800F0E38313
:105610004946404611F034F90746854BF750854B13
:10562000B3F800A01AF0030F3DD0049B022B3AD030
:10563000079B93F8320011F0D7F97F4BF15811F026
:1056400027FA079B814693F831B0CBF1000011F0A7
:10565000CBF980460146484611F0B8FB40B95846A0
:1056600011F0BEF94946804611F0BAFB00B9C846B0
:10567000049A724B33F91200089BB3F90030C01A38
:1056800011F0B2F96E4911F003FA0146404611F0EB
:10569000F5F81AF0010F0E9000F0CE83694B1968EF
:1056A00011F0F6F9074694F81431002B57D0049BFB
:1056B000022B54D0089BDFF88481B3F90000049BCF
:1056C00038F91330C01A11F08FF95E4B07465C4968
:1056D000186811F0DDF90146384611F0D9F9069A3B
:1056E000D4F818310746D31A574A1268934231DC6E
:1056F0004FF07E510A9811F069FB80B3534B544927
:105700001A68B1F90A00B8F900301B1A002BB8BFAB
:105710005B42934223DAB8F90230B1F90C105B1AFC
:10572000002BB8BF5B429A4219DD4A4BDFF8289143
:10573000D3F80080D9F80400414620F0004011F071
:1057400045FB60B1D9F80810404621F0004111F046
:105750005BFB20B1002084F814010CF02BF93E4BC8
:1057600038463344D3F804A0DFF81091514611F0C5
:1057700085F88046394B0D98F15811F089F941466A
:1057800011F086F9049B0146022B46F8090006D168
:10579000334A344B10681B689847C9F80800099BC6
:1057A00053F8049F0993304B5968304B186811F037
:1057B0006FF90C9911F06CF92D4BF15811F068F953
:1057C000414611F065F9494611F05AF8049B8346A9
:1057D000022B40F0008494F81C31012B02D0192BCD
:1057E00040F0F9834FF00103224940460E9311F037
:1057F0000BFB0E9B00B90346DBB2002B40D02BF015
:10580000004029F0004111F0E1FA00283BD037E0D8
:10581000BA3B0020582C002010250020202E00200C
:105820008C220020FA26002078100020142E002060
:1058300080110020F6350020141100208C3100204A
:10584000CDCCCC3DFC2D0020242E0020282E002085
:10585000F02600202C2E002020410020D02D0020FA
:105860002431002020310020000000205C2C00208A
:10587000DC2D002000009642AC1000208422002085
:10588000099BC3F800B0049B022B6DD0A24AA34B26
:1058900051461B68B0589847A14AA24B01461B6865
:1058A000B0589847079B814693F83A30632B00F233
:1058B0009C839D4B1B88002B40F097839B4BF1589A
:1058C0009B4B186811F0E4F84FF07E51824611F0BE
:1058D00087FA08B94FF07E5A964B5046196811F076
:1058E000D7F80146384611F0D3F8494610F0C6FF04
:1058F000914B8146F15810F0C1FF904B196811F09F
:105900007BF98D4B074646F80390079B93F8489028
:10591000B9F1000F1ED04FF07E510A9811F06AFACB
:10592000C0B1874B27F00040196811F06DFA88B1BB
:10593000844B28F00040196811F066FA50B101203C
:10594000069BB9F1020F84F81401C4F8183101D193
:105950000CF030F87C4B0D98F15811F099F839465D
:1059600011F096F8794B985194F828312BB9784B6F
:10597000F550099B1D60754BF550049B0133049352
:10598000089B02330893049B032B7FF41BAE714EDC
:105990003278072A05D10BF07FFE0B9BC01A6E4BA5
:1059A00058803378012B40F022830BF075FE6B4951
:1059B000D4F82C31684A0968C31A93805B1A0690A0
:1059C000D380C4F82C01664B664E1B6893F82F8079
:1059D000654B1B6813F4805F644B00F05583644A89
:1059E000B3F818901278F668D70758BF1A8B614B36
:1059F00058BFA4F83021DF88A9EB070B584610F0F8
:105A0000F3FF82460146304611F0EAF9002800F023
:105A1000F782D4F83831C4F83431574B1B68C4F8D6
:105A20003C31D4F84011D4F8480111F0E5F84FF0BA
:105A30007E51044611F0D4F908B94FF07E5400218C
:105A4000204611F0D7F900B900244C4DD5F8343177
:105A5000C5F848410793D5F83C3107981946089393
:105A600010F00CFF464BC5F854011968384B0B90E9
:105A7000186810F005FF354B196810F001FF414917
:105A80000C9011F005F8404B82461D6805F1004668
:105A9000314611F09BF9002840F00A832946504610
:105AA00011F09EF900B9AA46354B5968284B586841
:105AB00010F0E6FE254B596810F0E2FE31490D90DA
:105AC00010F0E6FF07460146304611F09DF930B967
:105AD000394628462E4611F083F900B93E46284B38
