:020000040800F2
:100000000050002015780108B17801085107010857
:10001000B1780108B1780108B1780108000000004A
:10002000000000000000000000000000B17801089E
:10003000B178010800000000B1780108CFB10008D4
:10004000B1780108B1780108B1780108B1780108E8
:10005000B1780108B17801081FB5000829B500087A
:1000600027B5000825B5000823B500086506010876
:100070005506010845060108350601082506010850
:1000800011060108FD050108B1780108B1780108E1
:10009000B1780108B1780108B178010821B50008EC
:1000A000B178010895100108B178010885100108A0
:1000B0007510010865100108551001084DE8000889
:1000C00051E8000845E8000849E80008B17801084F
:1000D000B17801080DB2000801B20008B17801083A
:1000E0001DB50008B1780108B178010800000000D2
:1000F0000000000000000000000000000000000000
:0C01000000000000000000005FF808F1A3
:100110002DE9F047B0F908308CB0DDB2442D064629
:100120000C460B8100F0928100F2E780052D00F073
:100130007D8100F29280022D00F0628178D8012D3D
:1001400000F04B815C2D00F0318501F20984362DE1
:1001500001F0AC8501F2A3832C2D00F0C38301F2E2
:100160005283222D01F0B68501F23A830A2D00F068
:10017000E382742D336800F06185772D00F06B8584
:10018000472D40F0888572683046D51A0FF0B8FBCD
:10019000052D074640F2688530460FF0C7FB3368EF
:1001A000726805469A4200F065855A1C326093F8E1
:1001B0000080002618F1000818BF4FF0010894E8ED
:1001C0000C009B1A103BB34AAB42A946B8BF9DB284
:1001D00093683946DB1B9D42204688BF9DB29246FC
:1001E0000FF0BEFBB8F1000F00F04885002E00F0C4
:1001F0000C81DAF808307A199A42D4F8008088BF66
:10020000DD1B0CF0B5FA2A46414638460CF00CFBD3
:10021000236803442360002E00F0F780002281450C
:1002200040F3F38023680130591C21601A70F6E70F
:10023000032D00F0EC80042D84D12A4696492046F7
:100240000FF084FB954B204619780FF09DFB236837
:100250005A1C226000221A70D7E0242D00F04E8133
:1002600021D8202D7FF46EAF8D4D0B686A78591C14
:1002700021601A7023682A78591C21601A7023683B
:10028000AA78591C21601A70298920460FF07CFB3E
:1002900023686A79591C21601A702368AA79591C4D
:1002A00021601A70B1E0282D00F06181382D7FF4B3
:1002B00049AF01250B685A1C0A601D700B685A195A
:1002C0000A6005221A700B685A190A600A221A700D
:1002D0000B685A190A6000221A70724B226819784A
:1002E00050192060117022685978501920601170DF
:1002F0009A782368591921607CE0812D00F00A81E9
:1003000029D8542D00F0508108D8522D7FF41AAF0F
:100310000B685A1C0A6000221A7076E06E2D00F0FD
:100320009A80802D7FF40EAF00220A265E4B5F4D2F
:100330001B780B3BDBB29A4267DA29882068FF29D9
:10034000A8BFFF21471C2760067020680132471CA8
:1003500027600170EFE7A02D00F0C0802CD8822D1F
:100360007FF4F0AE524B20461A780B68514D591C61
:1003700021601A704A4B19890FF006FB4E4B226818
:100380001B88511CFF2BA8BFFF2321601370A96895
:10039000204681F3100189B20FF0F6FA2968204651
:1003A00001F30F0189B20FF0EFFA444B1A7823687A
:1003B000591C21601A7028E0B82D00F0A580FE2D90
:1003C0007FF4C0AE00253E4E36F8151020460135AC
:1003D0000FF0DAFA042DF7D117E00B685A1C0A6007
:1003E00000221A700B685A1C0A601D700B685A1C98
:1003F0000A6024221A7068B265810CB0BDE8F087EB
:100400000422304920460FF0A1FA0125F3E70B68DA
:1004100001255A1C0A6002221A700B685A1C0A60D5
:100420001D700B685A190A600022E3E720460B2270
:1004300025490FF08BFA2046082224490FF086FA4E
:100440000722234920460FF081FADEE7002ADCD09C
:10045000204B1360D9E7184B0A681B88511CFF2BEF
:10046000A8BFFF23134D21601370A968204681F3B4
:10047000100189B20FF088FA174B204619880FF047
:1004800083FA2968204601F30F0189B20FF07CFA44
:10049000BBE700BF4C040020852B0020F80A002099
:1004A000EC1B00202C11002068210020C40F00202C
:1004B0007E3400208C2100206A340020E71B0020BD
:1004C00060210020D2C40108D7C40108E3C4010898
:1004D000ECC401080F070108E41B0020BC4B2046B8
:1004E00019680FF03DFABB4B204619680FF038FA37
:1004F000B94B204619680FF033FA86E7B74B204610
:1005000019680FF02DFA80E7B54B204619680FF0F7
:1005100027FA7AE74FF000090A274FF6FF78B14B28
:10052000DFF8F8A21B780B3BDEB2B145BFF66DAF2A
:10053000DAF8001023684145A8BF4146DAF80850B0
:100540005A1C21EAE171226089B21F7020460FF027
:100550001BFA07FB05F14145A8BF414621EAE171BD
:1005600089B220460FF010FA09F10109DDE70125F3
:100570000B689D4E5A1C0A601D700B6820465A1964
:100580000A6006221A700B685A190A600A221A7049
:100590000B685A190A601D7031880FF0F5F97188DF
:1005A00020460FF0F1F926E70B685A1C0A6000227A
:1005B0001A700B68591C21601A7026E700264FF646
:1005C000FF788A4FDFF858920196029603960496B8
:1005D000F157481C0BD048FA06F3DA0707D5B9F8EB
:1005E00000303341DB0702D503A80FF07FFC013652
:1005F0000B2EEDD100260FF2D019D9E90089324631
:100600004046494615F054FF002100F0010050EA31
:10061000010307D0F0B215F0A3F818B1314603A8D2
:100620000FF064FC0136252EE9D1714BDFF8F4811F
:100630001B78DF074FF000073E4642BF039B43F0A5
:1006400001030393394640460FF05CFC48B139463C
:1006500003A80FF057FC18B1314601A80FF046FC73
:1006600001360137252FEDD1624B2046B3F85010EB
:100670000FF08AF9604B20461988604F89B20FF05D
:1006800083F95F4B204619684A01C1F3400302F029
:1006900020021343C1F3800243EA4203C1F3C002C4
:1006A00043EA8203C1F3401243EAC20301F010019E
:1006B00019430FF069F9042220460DEB02010FF0F7
:1006C00045F923683A78591C21601A704D4B204631
:1006D00019886429A8BF64210FF056F9962D23D1FB
:1006E00023685A1C226003221A7023687A78591CE6
:1006F00021601A700823A6F1190292FBF3F2236815
:1007000082F30402591C216020461A7002A90FF0DE
:100710001DF9236820465A1C226010221A703A4B99
:1007200019880FF01DF970E6002120460FF02CF912
:10073000E0E7082701F08DB9344815F0B1FE002339
:10074000324998427FF761AE22685D5C561C266094
:1007500001331570F5E710222D4920460FF0F6F809
:1007600053E6002518262B4FDFF8BC8006FB0573E7
:10077000597C31B9204601350FF006F9082DF5D125
:1007800043E658F8250017F021FC81B2F2E736F86D
:10079000151020460FF0F8F801353B789D42F6DB46
:1007A00033E61D4D204629880FF0EEF86988204673
:1007B0000FF0EAF80A23B5F90410204691FBF3F193
:1007C00089B20FF0E1F820E690E33FF40800000062
:1007D000E8F7FF1FECF7FF1FF0F7FF1F8429002049
:1007E000942900206821002030110020BAA60108B9
:1007F000DC1B00200C0100206C250020802B002039
:100800008C23002070250020201C00208B2B002032
:10081000C4210020CC230020AA360020F00F0020A5
:10082000AC1F0020C00C00206C210020A44B2046EF
:1008300019680FF095F8A34B204619880FF0A4F81B
:10084000E3E5A14D204629880FF09EF8A9882046AF
:100850000FF09AF8298920460FF096F8D5E59B4BC2
:1008600022689978501C206011705A782368591CAE
:1008700021601A70C9E500219548036801EB410227
:100880009D5C236801315E1C26601D7003680A2987
:1008900013445D78236803F1010626601D70036828
:1008A00013449A78236803F1010525601A70E4D196
:1008B000ABE52168481C20600A7013F8012F002A5C
:1008C000F7D1A2E5012523685A1C22601D7092E52C
:1008D000804D2046A9890FF057F8698920460FF00E
:1008E00053F892E57C4D23682A7A591C21601A70CE
:1008F000A98B20460FF048F8298B20460FF044F8CA
:10090000698B20460FF040F82368EA7C591C21606F
:100910001A70A98C20460FF037F8E98C20460FF0AA
:1009200033F82368AA7F591C21601A70236895F850
:100930002020591C21601A70698C20460FF024F881
:100940002368EA7A591C21601A70E96820460FF082
:1009500007F823682A7C591C21601A70236895F8CF
:100960002120591C21601A704FE55C4D23682A79BB
:10097000591C21601A7023686A79591C21601A7009
:10098000298820460FF000F82368AA79591C2160B5
:100990001A70698820460EF0F7FF2368EA79591C1F
:1009A00021601A7031E5236816F81510581C06EB03
:1009B0004502206019705178204601EB810101EB5E
:1009C000810101F2EE2189B20EF0DEFF01353B78A4
:1009D0009D42E8DB19E5404B5A7D2368591C216094
:1009E0001A7012E500253E4E56F8251020460135B6
:1009F0000EF0B6FF202DF7D107E5394D002306276D
:100A00002846002107FB03F6226802F1010EC4F814
:100A100000E01370226802F1010EC4F800E01170CA
:100A20008A192A4492F8C0E02268013102F1010CCF
:100A30000629C4F800C082F800E0E5D10133062B96
:100A4000DFD1002221684D1C25600B7021684D1CF0
:100A500025600A70811891F8E450216801324E1C1B
:100A60000B2A26600D70EDD123685A1C22600722E4
:100A70001A7023685A1C226000221A70236890F8AA
:100A8000F020591C21601A70BFE40BF08DFD002886
:100A900014BF032202222368124D591C21601A70D0
:100AA000298820460EF05CFFA96820460EF058FF0A
:100AB0000BF05AFD014620460EF052FFA5E400BFA0
:100AC0009410002088130020B00C00206411002036
:100AD0008423002026270020AC350020782B00201E
:100AE0005C1A00204C04002001252368AA4E5A1CE1
:100AF00022601D702368B278591921601A7015F0B0
:100B00007DF833885843A54BB3F9003090FBF3F0E0
:100B100023685A192260187015F070F823685A1962
:100B20002260187031883BE50025236829465A1C4D
:100B300022601D70236820465A1C22601D702368A5
:100B40005A1C22601D700EF00BFF294620460EF045
:100B500007FF5AE4924D204629880EF015FF698858
:100B600020460EF011FFA98820460EF00DFF4CE440
:100B70008C4B1A782368591C21601A708A4B9A781A
:100B80002368591C21601A70884B9A782368591C75
:100B900021601A7039E4B278591C21601A70844BB4
:100BA0001A782368591C216000F0BABE7D4E236874
:100BB0007279804D591C21601A702B682046198C5F
:100BC0000EF0E2FE2B682046D98B0EF0DDFE318957
:100BD00020460EF0D9FE718920460EF0D5FE2B6816
:100BE0002046598C0EF0D0FE2B682046998C0EF0D2
:100BF000CBFEB18920460EF0C7FEF18920460EF0EB
:100C0000C3FE2B6893F826202368591C21601A70B4
:100C1000FFF7FBBB644BDA782368591C21601A701C
:100C2000654B5A792368591C21601A705F4BDA783A
:100C30002368591C21601A70FFF7E7BB72689A425B
:100C40000FBF00215A1C326019785C4A204611F00F
:100C500031FEFFF7DABB72689A421DBF5A1C326040
:100C600019780021564AF1E701264FF00008802547
:100C7000FFF7A5BA0026B046FFF7A1BA002E7FF411
:100C8000B8AA294620460EF07FFE23685A1C22602F
:100C90001E70FFF7AEBA292D36D0392D1FD0212D69
:100CA00049D15A1C32601A46464D12F8021B304692
:100CB000697032605A782A70DA1C32609B78AB70A7
:100CC0000EF034FE336828815A1C32601A4612F83E
:100CD000021B697132605B78AB71FFF796BB5A1CDF
:100CE00032601A780A2A41F031809A1C32605978B1
:100CF000354A1170D91C316099785170191D3160D5
:100D0000DB789370FFF781BB5A1C32601B7830464A
:100D10000A2B09D10EF00AFE2C4D288030460EF029
:100D200005FE6880FFF771BB0EF000FE30460EF046
:100D3000FDFDFFF76ABB72685F2DA2EB030700F0B1
:100D4000F28300F26F81352D00F0918200F2A980CC
:100D50002B2D00F09D843DD8232D00F0708206D805
:100D60000B2D00F028854FF0FF35FFF744BB252DF4
:100D700000F07A84272DF6D130460EF0D7FD144DC1
:100D8000286030460EF0D2FD686030460EF0CEFD91
:100D9000A860FFF73ABB00BF383B0020CE3B0020E5
:100DA000083B00204C31002026270020581100204D
:100DB000183A002084230020BE2000206D2801085E
:100DC000191F0108EC1B00202C11002030110020FD
:100DD000B00C00202F2D00F08B8455D82D2DC2D1C2
:100DE0005A1C32601B78BF4D30462B720EF09EFDB0
:100DF000A88330460EF09AFD288330460EF096FD0B
:100E0000336868835A1C32601B78EB7473689B1AD2
:100E1000032B07DD30460EF089FDA88430460EF026
:100E200085FDE88433687268D21A032A0DDD5A1CE6
:100E300032601A4612F8021B3046A97732605B789E
:100E400085F820300EF072FD688433687268D21A1B
:100E5000052A0CDD5A1C32601B783046EB720EF00E
:100E60004FFD3368E8605A1C32601B782B7433687E
:100E70007268D21A002A7FF7C8AA5A1C32601B78FF
:100E800085F82130FFF7C1BA312D00F04A84332DA7
:100E90007FF469AF5A1C32601A78924B5A75FFF78B
:100EA000B4BA482D00F0DC8339D83C2D3FF4ADAA0C
:100EB00023D8372D7FF457AF0723B7FBF3F3C3EBEA
:100EC000C302BF1A7FF44FAFDFF838A25FFA83F88E
:100ED000FBB243453FF499AA002531684B1C3360AF
:100EE00091F900100AEBC50999F902308B4200F024
:100EF0006D870135042DF5D135E73E2D00F0938146
:100F0000412D7FF430AF002376493268501C3060A9
:100F100012785A540133082BF7D1FFF776BA512DC6
:100F200000F07B8328D84C2D00F0C4834E2D7FF435
:100F30001AAF5A1C32601F78112F3FF614AF9A1C5B
:100F400032605B78684D304605F817300EF0EEFCE5
:100F500040F6CA039842A8BF184640F2EE239842D2
:100F6000B8BF18461923A0F2EE2090FBF3F005EB72
:100F700047056870FFF749BA5B2D00F098825D2D38
:100F80007FF4F1AE5A1C32601B78584D584F3046F2
:100F90007B71D5F800800EF0C9FCA8F8200030461F
:100FA000D5F800800EF0C2FC96E80C009B1A072BC7
:100FB000A8F81E0015DD30460EF0B8FC388130462A
:100FC0000EF0B4FC78813046D5F800800EF0AEFC0F
:100FD000A8F822003046D5F800800EF0A7FCA8F84B
:100FE000240096E80C009B1A032B07DD30460EF018
:100FF0009DFCB88130460EF099FCF8813368726828
:10100000D21A002A05DD591C2A6831601B7882F843
:1010100026300FF097FC12F0A0FB286813F01AFF9F
:10102000FFF7F3B9D42D00F095816DD8CC2D00F0E9
:1010300045813BD8B92D00F0228314D8612D7FF46F
:1010400092AE5A1C32601A462A4912F8020BC87036
:1010500032605978284A5171DA1C32609A78274BED
:10106000DA70FFF7D2B9C82D00F0AA80CA2D7FF43C
:101070007AAE1E4B1868034600F11E053268033332
:10108000511C3160114611F8027B03F8037C31607A
:10109000517803F8021CD11C3160927803F8012CBE
:1010A0009D42EBD113F000FEFFF7AFB9CE2D00F05B
:1010B000A882C0F09B82D02D00F08B82D22D7FF4CD
:1010C00052AE5A1C32601878060670D40C4B1B784E
:1010D000DD073FF59AA9032828BF00200FF070FB19
:1010E000FFF793B9AC350020D930002084230020CD
:1010F0004C31002026270020BE200020581100205F
:10110000DC1B0020DE330020DC2D00F0BE8125D862
:10111000D92D00F0768113D8D62D7FF424AE00258A
:10112000BF4FDFF830833B789D42BFF66EA9304653
:101130000EF0FCFB15F020FF48F825000135F2E722
:10114000DA2D00F08D81DB2D7FF40DAEB54B4A22F8
:10115000B549186816F0D4FDFFF757B9EF2D57D0F1
:1011600014D8DD2D00F01683DE2D7FF4FCAD304663
:101170000EF0DCFBAD4D288230460EF0D7FB6882C6
:1011800030460EF0D3FBA882FFF73FB9F22D00F0F6
:101190000D81FA2D7FF4E7ADA54B1B78DB073FF5FA
:1011A000E2AD0FF023FB0FF049FCFFF72EB900F082
:1011B0007F00032828BF002015F0C0F8FFF725B9ED
:1011C000C7F34707122F3FF6CEAD00250DF10C08EF
:1011D000BD420CDB0023974A03A99F420ED1002198
:1011E000944A122B10D10125934BFFF76FBB304669
:1011F0000EF09CFB28F815000135E9E731F81300E3
:1012000022F813000133E8E722F813100133E8E76E
:1012100030460EF08BFB894DA88130460EF086FBE0
:101220006881FFF7F2B85A1C32601A46844912F8F6
:10123000020B887032605B784B70FFF7E6B85A1C7F
:1012400032601D78132D3FF68EAD00210C279A1CBD
:1012500032605A78DFF800E207FB01E090F808C03E
:10126000944500F07E8501312529F5D17BE55A1C96
:10127000326019780E293FF676AD9A1C32605D789F
:10128000032D3FF670AD06224A436E4881184D711A
:10129000DD1C35609D7885541A1D3260DA784A70FD
:1012A0005A1D32601A798A709A1D32605A79CA7052
:1012B000DA1D32609B790B71FFF7A7B8092F7FF712
:1012C00052AD614D5A1C2F6832601A4612F8021B4B
:1012D000781D397032605B78BB700023022B0CBF25
:1012E0004FF0FF0E4FF0640E316801334A1C32603C
:1012F0000A787245A8BF7246032B00F8012BEDD186
:101300008B1C33604B783046642BA8BF64233B7240
:10131000CB1C33608B78FB700B1D3360CB783B713B
:101320000EF004FB96E80C00991A0029788104DD80
:10133000501C2968306012784A7232689B1A002B60
:1013400004DD511C2B68316012785A7014F058FA81
:10135000FFF75BB80D2F7FF406AD5A1C32601D7885
:10136000072D3FF600AD0C2730460EF0DFFA6F4335
:10137000DFF8E88008EB0705A88030460EF0D6FAC3
:10138000E88030460EF0D2FA336828815A1C326069
:101390001A4612F8021B3046A97232605B78EB7273
:1013A0000EF0AEFA48F80700FFF72FB85A1C32606B
:1013B0001A780F2A3FF6D7AC991C31605D78234824
:1013C000C2EBC20285548118DA1C32609A784A70E6
:1013D0001A1D3260DA788A705A1D32601A79CA7022
:1013E0009A1D32605A790A71DA1D32609A794A710F
:1013F00003F108023260DB798B7113F02DFCFFF7EB
:1014000004B830460EF092FA114D288030460EF0A6
:101410008DFA688030460EF089FAA880FEF7F5BF95
:101420006821002084230020BCC00108E4210020A2
:10143000DC1B0020E22F0020E02F002026270020C8
:1014400064110020402A0020103B00207438002046
:10145000083B00207425002068AA010848360020B7
:1014600019465A1C326011F8020BB74A10703160ED
:10147000597830465170D91C31609B7893700EF0CA
:1014800055FAB24BD880FEF7C0BF5A1C32601A46DC
:10149000AF4912F8020B087032605978AD4A91706A
:1014A000DA1C32609A78AC4B9A70FEF7AEBF5A1CC9
:1014B00032601A46A64D12F8021BA84FA97032607E
:1014C0005978A74A30461170DA1C32609A783A711E
:1014D0001A1D3260DB78042BA8BF0423BB700EF00A
:1014E00025FA96E80C009B1A012B388003DD304664
:1014F0000EF01CFAF881336872689A4206D05A1CC2
:1015000032601B78003318BF0123AB710FF01AFA59
:10151000336872689A423EF478AF5A1C32601B7886
:10152000FB70FEF772BF30460EF000FA30460EF048
:10153000FDF930460EF0FAF930460EF002FA336843
:10154000884D591C2A683160194611F8020B82F83F
:101550002C0031605978304682F83610D91C316041
:101560009B7882F837300EF0ECF930460EF0E9F94E
:1015700030460EF0E6F930462F680EF0D7F978873E
:1015800030462F680EF0D2F996E80C00991A01291E
:1015900038870BDD511C28683160114611F8027B39
:1015A00080F82E703160527880F82F2032689B1AB4
:1015B000032B09DD30462F680EF0B8F978863046E7
:1015C0002F680EF0B3F9B886286813F06DFBFEF7AC
:1015D0001CBF654B1B78D8073EF517AF0FF000FC1A
:1015E0000FF004F90FF02AFAFEF70FBF5E4B1B78DD
:1015F000D9073EF50AAF4FF4C8725C4B1A80FEF76C
:1016000004BF594B1B78DA073EF5FFAE584A1378F2
:1016100043F004031370FEF7F8BE56490978012918
:101620003EF6F3AE591C31601946534D11F8020BCA
:10163000A8703160D81C59783060101A012805DD77
:1016400030460EF073F92880FEF7DFBE4B4A9B78D8
:10165000B2F900204A4392FBF3F32B80FEF7D5BE8C
:101660000BF0C4F8FEF7D1BE0023454D30462B6089
:101670000EF046F92B6818432860FEF7C6BE00231B
:10168000404D30462B600EF03BF92860FEF7BDBEA2
:101690005D1C356018783C49521B002A08707EF7A3
:1016A000B4AE9A1C32605B78003318BF01234B70D4
:1016B000FEF7ABBE5A1C32601A46344D12F8021BBC
:1016C0003046297132605B786B710EF02FF9336808
:1016D00028805A1C32601B783046AB710EF026F918
:1016E000336868805A1C32601B78EB71FEF78DBE40
:1016F000274D05F1400730460EF018F93368A5F87C
:1017000080005A1C32601A4612F8021B043585F814
:101710007E1032605B7885F87F30AF42EBD1FEF708
:1017200074BE5A1C32601D781F2D3FF61CAB052F6E
:101730007FF419AB30460EF0E3F8154B43F8250063
:1017400009F028F8FEF761BE6C100020083B00206D
:101750004C3100202627002058110020E4210020D1
:10176000183A002084230020DC1B00206414002091
:10177000E8200020DE210020383B0020CE3B002066
:10178000842900209429002090230020782B002019
:101790005C1A00205A1C32601A4612F8020B3260A2
:1017A000DA1C597832609A7808F0D0FF00287EF46D
:1017B0002CAEFFF7D8BA00211122BA4818F0D1FE9A
:1017C000102F4FF0000328BF1027B649BB42BEF4CC
:1017D0001CAE3268501C306012785A540133F5E761
:1017E000262D3FF42EA82A2D7EF4C3ACAE4B2268E2
:1017F0001978501C206011705A782368591C216098
:101800001A70FEF702BE302D3FF4ECA81BD82E2D27
:101810007EF4AFACA54D05F14006B5F8801020462A
:101820000EF0B2F8236895F88220591C21601A70D6
:10183000236895F883200435591CAE4221601A7044
:10184000EBD1FEF7E2BD322D3FF4C5A8342D7EF476
:1018500090AC974B03F15A0122685879551C2560CA
:10186000107022681878551C25601070226858780E
:10187000551C2560107022689878551C25601070E2
:101880002268D878551C25601070226818790633B4
:10189000551C994225601070DED1FEF7B6BD462D6D
:1018A0003FF4F3A819D83B2D3FF40CA808D83A2DE3
:1018B0007EF45FAC002120460EF052F8FEF7A5BD85
:1018C0003D2D3EF4CCAF402D7EF453AC0822794937
:1018D00020460EF03BF8FEF798BD4F2D3FF424A9AB
:1018E0000AD84B2D3FF441A84D2D7EF442AC002583
:1018F000714F724EFFF76BB8502D3FF4F5A85A2D7B
:101900007EF437AC6E4E2368F278002A3FF443A988
:101910005A1C226008221A7023685A1C2260012275
:101920001A70684D23682A79591C21601A7023683F
:10193000AA78591C21601A70298820460EF024F8D4
:10194000E98920460EF020F82368B279591C2160FD
:101950001A702368EA78591C21601A70FEF755BD89
:10196000702D3EF488AF00F20B81672D3EF4F3AE8C
:1019700000F2B480602D3FF44DA959D85E2D7EF45D
:10198000F8AB204600210DF0FFFF204600210DF0AE
:10199000FBFF204600210DF0F7FF23684A4D5A1C3B
:1019A000226000221A702B6893F82C102368581CB0
:1019B000206019702B6893F836102368581C20603B
:1019C00019702B6893F837102368581C2060197021
:1019D00023682046591C21601A702368591C216015
:1019E0001A702368591C21601A702B68598F0DF0EA
:1019F000CBFF2B682046198F0DF0C6FF2B682046C1
:101A000093F82E202368591C21601A702B6893F8D4
:101A10002F202368591C21601A702B68598E0DF0F5
:101A2000B3FF2B682046998E0DF0AEFFFEF7EDBC9C
:101A3000652D3EF4C3AD662D7EF49BAB234EB28A7A
:101A4000B2F5006F3EF675AEB2F5007F2CBF0427ED
:101A5000012700257319596B204691FBF7F10435D6
:101A600089B20DF091FF0C2DF4D10125184E194FBC
:101A7000396A56F8250015F08BFB16F0A7FA0135E8
:101A800081B220460DF080FF042DF1D10025124EC9
:101A900036F82510204601350DF076FF032DF7D1DD
:101AA000FEF7B3BC8B2B0020902300205C1A002093
:101AB000402A0020AC350020D02F0020D930002053
:101AC0004C310020E4210020842300201C21002030
:101AD000CC3300205C310020A42D00206C2D3EF47E
:101AE00060AE0AD8682D3EF43CAE692D7EF441AB61
:101AF0000025A94FA94EFEF750BE6D2D3EF496AEBF
:101B00006F2D7EF436ABA64D2B681A782368591CCE
:101B100021601A702B689A782368591C21601A700A
:101B200000232A681A44517922680133501C032B80
:101B300020601170F5D12B6820461A7A2368591C51
:101B400021601A702B68DA782368591C21601A709A
:101B50002B681A792368591C21601A702B685989DF
:101B60000DF012FF2B685A7A2368591C21601A70F5
:101B70002B685A782368591C21601A70FEF745BCFF
:101B80007E2D3EF4F5AF25D8782D6DD005D8752D76
:101B90007EF4EFAA834BFEF790BE7C2D3EF4DAAFC5
:101BA0007D2D7EF4E6AA804B22681978501C2060B7
:101BB000117022685978501C206011709A7823683F
:101BC0002046591C21601A70784BD9880DF0DCFE34
:101BD000FEF71BBC962D3EF4F1AC14D87F2D3EF4DD
:101BE0000CAF832D7EF4C5AA714D2046298A0DF0D5
:101BF000CBFE698A20460DF0C7FEA98A20460DF06B
:101C0000C3FEFEF702BCF02D3EF462AEF12D7EF471
:101C1000B0AA684B03F1700122681878551C256042
:101C2000107022685878551C2560107022689878CA
:101C3000551C256010702268D878551C25601070DE
:101C400022681879551C2560107022685879551C37
:101C500025601070226898790733551C8B422560E7
:101C60001070D9D1FEF7D1BB534D05F16006A9889C
:101C700020460DF089FEE98820460DF085FE298971
:101C800020460DF081FE2368AA7A591C21601A7043
:101C90002368EA7A591C21601A7055F80C1B2046FB
:101CA0000DF05EFEAE42E2D1FEF7AFBB434D444FB6
:101CB00005F12006002395F90220D91991F90610A3
:101CC000914226D00833202BF7D10835B542F1D107
:101CD000FEF79BBB3B4D05F15006287810F0D7FD71
:101CE0002368027A591C21601A7023686A78591C8B
:101CF00021601A702368AA78591C21601A70236821
:101D0000EA780435591CAE4221601A70E5D1FEF71D
:101D10007CBB23682046591C21601A7029880DF06D
:101D200033FE2368EA78591C21601A7023682A79E7
:101D3000591C21601A702368AA79591C21601A70F5
:101D400023686A79591C21601A70BEE730460DF08D
:101D5000F8FD30460DF0F5FD30460DF0F2FDFEF7D2
:101D600054BB0178174A002002F82510D91C3160B5
:101D7000997802EB85025170191D3160D978917004
:101D8000591D31601B79D37013F0B0FC0E4B80F0FD
:101D900001001870FEF739BBD02F0020841F0020EF
:101DA000103B0020C4A601086C100020083B002056
:101DB000E42100207438002048360020DE33002063
:101DC00004340020A02900200000002089F802101F
:101DD00030460DF0ABFD33682AF8350019465A1C21
:101DE000326011F8022B013789F8032031605A78EC
:101DF00089F80420DA1C32609A7889F806201A1DC6
:101E00003260DB7889F80530FFF762B82DE9F04FD2
:101E10000B4B0C4D0C4AC5F8B834002310680B4925
:101E20009FB08842C5F8BC3416D1136062B6084B27
:101E3000186812F0A7F9074B1B689847FEE700BF28
:101E400025F4000834060020F04F0020EFBEADDE80
:101E500000F0FF1F04F0FF1F089309930A934FF44B
:101E6000E013BC4C0B93236843F480332360A369D5
:101E700043F01003A361236803F400330993089B24
:101E800001330893099B1BB9089BB3F5A06FF2D1EE
:101E9000236813F4003300F0B58202230A93AE4B9B
:101EA000AE4F1A6842F010021A601A6822F003025C
:101EB0001A601A6842F002021A606368636063681D
:101EC0006360636843F480636360A54B1A68043BF6
:101ED00022F070425A60A34A3A60626822F47C128F
:101EE00062605A6842F000425A60DA6822F40042A6
:101EF000DA609B681E0449BF9B4B4FF4E0133B60C4
:101F00004FF480130B930A9B012B00F09382022B5A
:101F100005D10B9B6268134343F4803363602368ED
:101F200043F08073236023689801FCD5636823F035
:101F300003036360636843F002036360636803F054
:101F40000C03082BFAD16368DFF86C8203F00C03F2
:101F5000042B00F07382082B00F07282814BC8F8CA
:101F600000306368DFF85492C3F3031319F80320B9
:101F7000D8F80030DFF848B2D340C8F800307B4BC7
:101F80004FF6FF72CBF80C30A3690DF1780A43F0DD
:101F90000103A361636A636A754E43F080736362F1
:101FA000A369304643F01C03A361002313932AF86E
:101FB0002C2D514611F028FF51466E4811F024FF98
:101FC00051466D4811F020FF02214FF400728DF848
:101FD0003E101021ADF83C208DF83F1030463261A4
:101FE0000FA911F011FF654950464A6842F000728E
:101FF0004A6011F0BCFE139B614A3046B3FBF2F31A
:102000004FF47A72C5F8C034D8F800304FF0010CA4
:10201000B3FBF2F35B4A013B5360F0238BF82330B0
:10202000002393600723DFF89CE11360564A09F10F
:102030000E01002331F8026F46FA03F818F0010F81
:1020400018BF0CFA03F803F101031EBF1060A2F8D9
:1020500004800832102BEFD100F580607045E8D184
:102060003B68404A934240F0FD81012385F8C43427
:102070000DF005FF18B90EF0B3FE0EF0B7FB0EF031
:10208000DDFC05224149424818F0AEFA18B10EF0C5
:10209000A7FE0EF0ABFB95F8C5343E4F43F00103AD
:1020A00085F8C5343C4BDFF820819A783B4B08F12A
:1020B000050A1A703A4B1B683B6095F8CA3485F8DC
:1020C000C634002313F808004FEA830B5E1C002877
:1020D00000F0CE81029309F01DF9029B4AF823001B
:1020E00010B10523C671837112215AF80B0009F053
:1020F00037F9032E3346E5D10021084609F0A4F94B
:102100000021012009F0A0F90021022009F09CF92A
:102110000121022009F098F9A369002143F001038D
:10212000A36140221F4818F01CFA4FF0FF331E4AEB
:10213000C5F818356420C2F8033009F03EF8A02233
:1021400000211A4818F00DFA0024194D194E0023E9
:1021500060593BE0001002400020024008010020CE
:102160000410014000127A00001BB7000005FA05B8
:1021700000080140000C0140001001400000014037
:1021800040420F0010E000E094250020F4C4010854
:10219000852B002094230020802B00208823002002
:1021A000842900200C0B00204C0B0020E03C002078
:1021B000E8AF010810A7010828000020F8A60108D0
:1021C00000ED00E000140140FB0A002056F8331037
:1021D000DA00884240F04F8109EB0203187F103487
:1021E00011F0FCF9E02CB2D1B64AB74C0021A04660
:1021F0009146B64E00250B5D01F10F00204406EB21
:10220000030A10F801CFBCF1000F05D09AF80CE0DA
:10221000E64508BF82F858E090F803C0BCF1000F13
:1022200005D016F803E0E64508BF82F859E001350D
:10223000032DE6D1B2F8580040B108EB010009EBDC
:1022400083035065C3F8202502F517721C31382925
:10225000D0D10424DFF86C82202200219C483D6804
:1022600088F82C4518F07DF94FF0000E974B714619
:1022700093F80BC093F80A904FF0FF0A23464246AA
:102280009348DFF8A48205F0400611F908401E2C9F
:10229000847140F0F680002E00F0FB80B9F1000F51
:1022A00000F0F7800131042900F10800EDD1BEF102
:1022B000000F01D082F82C35864B874C93F800B084
:1022C000864E874B15F4805214BFA088B08A83F8DD
:1022D00000B00292994614F053FEDFF85082DFF806
:1022E00050A2C8F80000308A14F046FE7D4B1860FA
:1022F000708A14F041FE7C4B1860608814F03CFE3C
:102300007A4B1860208814F037FE794BBAF81A100F
:102310001860C1F5FA60039114F032FE754A039912
:102320001060BAF81820B4F806A0501AA0EB0A0002
:10233000039214F025FE039A6F490860C2F5FA6013
:10234000A0EB0A0014F01CFE6C4B6D4A18606D4B3C
:102350002B40002B40F0A4806B4B03EBCB0B9BF886
:102360000130136040F2DC510023684A22F8131058
:102370000133082BFAD1029BB6F814B00BB1B4F8B4
:1023800004B0B378042B05D14FF480500DF09CF9C4
:102390004FF0000B002599F800205D4CA2F11703C7
:1023A000022B257000F2C880DFF88891002155F8D3
:1023B000090005EB090A14F0CBFF002872D03B6836
:1023C000DA0400F1DA800023D8F80010514A42F80C
:1023D00023100133082BFAD12378C02200214E4864
:1023E000049318F0BEF83779B378003718BF012787
:1023F000042B00F2E780DFE813F09001E500920182
:10240000E8008A01226842F00102226008932368F2
:1024100003F002030993089B01330893099B1BB93E
:10242000089BB3F5A06FF2D123689F0701D5012364
:1024300034E5FEE7636843F460136FE53B688EE5BF
:1024400063686268C3F38343D10303F1020302D4D8
:10245000324A534383E5626812F4003F3A6818BF7A
:102460005208F6E72E4A93427FF402AE0223FDE5BE
:102470004AF823003DE60133042B7FF4A7AE002089
:10248000ADE61F2C7FF40EAF1EB1BCF1000F7FF440
:1024900009AF013B80F806A0DBB24FF0010E01E767
:1024A00001235EE71F4B05EB030E9AE80F008EE851
:1024B0000F00237810350133802D23707FF476AF21
:1024C0007DE700BF3406002030A701083419002042
:1024D0000434002090230020083B0020E421002049
:1024E000A8360020FC21002028110020B011002077
:1024F000A0110020B8110020AC110020B411002060
:10250000441200202000100030AC0108C42100203B
:102510006821002074250020CC23002000093D0004
:10252000001BB700C011002068A701081425002077
:10253000AC35002080280020B44B13F8321003EB98
:10254000C2030829217088BF0821D3F804C088BFBE
:102550002170BCF1000F3FF432AF0025DFF810937B
:1025600023789D42BFF62BAF2B0103EB090E63448A
:102570000FCB01358EE80F00F2E72378012B7FF6B1
:1025800022AF4FF07C59A24D05EB031303F1100766
:102590001035AF423FF417AF494655F80C0C14F014
:1025A00043FD494645F80C0C55F8100C14F03CFD61
:1025B000494645F8100C55F8080C14F035FD45F85F
:1025C000080CE5E7934CA04602E0934CDFF8A482A8
:1025D000924A934B21461A60924A934B4046002FF1
:1025E00018BF1346914A0025136014F015FC0146EC
:1025F0004FF07A5014F0CCFD8D490390204614F032
:1026000013FD8C4CDFF870A20590049BAB4240F3A5
:10261000E58005EB0A035E79002130460EF000FDEF
:10262000029000287DD1844A7D4B1A607D4A7F4B01
:102630001A60824C82482368002B40F01F81037887
:1026400003F0EF02082A7F4A40F03A811178182BF4
:1026500041F01001117001D112F0FEFA2368002B35
:1026600040F03781784A794C1368069213F00106DE
:1026700040F078819B0440F1C38194F81826744B94
:1026800004F5A8651A7004F5C26816F808900021D0
:1026900048460EF0C5FC074698B300224FF0010AE9
:1026A0005FFA86FB05F80FBC45F8040C05F80E2C04
:1026B00005F80D2C05F810AC484608F02BFED34465
:1026C0005FFA8BFB18B180F806A080F807B04FF0D6
:1026D000000B2A2108F044FE5E4A0021384608F02B
:1026E00071FC5D4B2A1D2B605C4B294638466B60A4
:1026F000C5F808B008F0BAFC5A467979386806F08F
:10270000DFFF0136082E05F11C05BED178E100245B
:10271000A04601274FF0000B5AE7454CF8E7504C14
:1027200051E7304608F0F6FD6B1C6061DBB210B17A
:102730000322C37182711A2108F012FE002F51D0BA
:10274000BAF8000014F01CFC14F070FE454B4FF674
:10275000FF791E68B6FBF0F34B441B0CB6FBF3F697
:102760000FB1B6FBF0F99AF80230042B3ED148467F
:1027700014F002FC2E4914F057FCA060079030467C
:1027800014F0FAFB414614F04FFC079B06903649C3
:10279000184614F049FC069A0146104614F03AFB1C
:1027A0009AF80330E0603246019302991FFA89F3E8
:1027B000CDF800B0204613F05FFD002318221D491C
:1027C000AB4218D1002383F00103237401231D447D
:1027D000082D637404F118047FF417AF0122234B12
:1027E0001A7026E7039815F067FBADE7304614F042
:1027F000C3FB0599BFE702FB031046686068864289
:1028000001D00133DCE70123DDE700BF30AC010874
:10281000C41100206F120339ACC5A7374D620108FF
:10282000002B0020BD610108E1610108042B00209C
:102830006F12833ACC230020BF61010844120020AC
:10284000A8360020E8200020942300203406002031
:102850005819002040420F00FD960008B78D00086F
:10286000282930382800002000007A44481200202F
:10287000C0110020ACC5A736E42100200278334BFC
:10288000334913F8325003EBC2035E680D70002E1B
:102890003FF4D5AE00232F4FAB42BFF6D0AEC3EB13
:1028A000C3017218D2F800C001EB070E41F807C04F
:1028B00091880133AEF8041092798EF80620EBE788
:1028C0000E2B3FF4C3AE1178192B21F010011170BB
:1028D000C1E600254FF0040B1F4F204EDFF880A00B
:1028E000A7F1030917F8018FB8F1000F3FF4BAAE52
:1028F000404608F00FFD013504467061EDB210B19D
:1029000080F806B0C571002140460EF089FB804674
:102910001A21204608F024FDB8F1000F3FF4A2AEC2
:102920000022B9F8023001929AFBF3F3B9F80020C3
:102930009BB2009230460A4A414613F09DFC0123A7
:10294000082D737406F11806CCD18BE66CB1010822
:1029500040370020D0360020453700205C19002089
:1029600040420F000025FF2294F82D75C74B2946E1
:10297000384683F840501D605D609D60DD6383F8DC
:10298000412083F8422083F8435083F8445083F871
:1029900045500EF045FB064690B30368BC496A18E3
:1029A000507C18B15268934200F034841835C02D21
:1029B000F5D10025C4F83C6584F83055384608F058
:1029C000A9FC10B10223C571837100252A2108F0EA
:1029D000C7FCB04A0021304608F0F4FAAE4BAF4ACB
:1029E000C4F84035AE4B111F3046C4F84435C4F826
:1029F000485508F03BFB2A467179306806F060FEC6
:102A000094F8C534B4F81E7694F81A6643F00403BB
:102A100084F8C534A4F820763046002F40F00584B1
:102A200008F078FC94F81B26C4F82406003218BF7E
:102A3000012284F8282650B1242294F81C36827191
:102A4000002BC7710CBF1221162108F089FC002051
:102A500008F0CEFC934B0020C4F848360DF0B0FDD2
:102A600001200DF0ADFD4FF0000C8F488F4D00F1AF
:102A7000200E50F8056C6EB310F9093CE21892F87C
:102A80004C7692F84E8692F8509605EB0311821E12
:102A900012F801AFBA4592F802A008BF0F71C24503
:102AA00092F804A008BF81F80580CA4508BF81F8E4
:102AB00006909042ECD11A01AB18197951B15979AD
:102AC00041B1997931B1AE50427983F80CC0DA71D5
:102AD00082791A7210307045CBD1744D10F02EFEF1
:102AE00010F02CFE287E10F079FD01232A7E02F0E2
:102AF0001F015209022A03FA01F300F0C383032ADB
:102B000000F0C583287D08F005FC064618B11223A5
:102B100083710223C371687D08F0FCFB18B1132395
:102B200083710223C371A87D08F0F4FB18B114234C
:102B300083710223C3711B21304608F011FC687DAC
:102B400008F0E8FB072108F00BFCA87D08F0E2FB89
:102B50001B2108F005FC2A69554B9A4240F09C83E2
:102B600003F56043D96841F48051D960D96821F4F4
:102B70008051D9602B7F002B00F0AA8300231846D8
:102B8000118801F4415141F445710B430343138013
:102B9000938B23F400631B041B0C93830723138282
:102BA00013889BB243F04003138094F8C434032B82
:102BB00011D11F2007F07DF800233E4A02EBC3012C
:102BC00091F90210022901F0C0820133042BF5D1E2
:102BD000022007F06EF80CF059FC01200BF02EFCDF
:102BE0002C2008F097FB9F238DF83C300023C4F87D
:102BF000540632208DF83D308DF83E308DF83F3050
:102C000008F0DBFAD4F8540608F0CCFB042313AA2E
:102C10000FA9294808F0A8FCD4F8540608F0C7FB0F
:102C20009DF84E309DF84D201B0243EA02439DF86B
:102C30004F201343214A93421FD0322008F0BDFA9F
:102C4000D4F8540608F0AEFBF5211B480CF002FC4A
:102C5000FF2119480CF0FEFB8DF84C00D4F8540607
:102C600008F0A5FB9DF84C30702B06D194F8C434C5
:102C7000022B02D1032384F8C434114B00215E7966
:102C80001048751E6A426A419D791DE018140020A3
:102C9000CC23002040420F00DD8D0008780B00207F
:102CA000198F00083419002075A70108A4270020F7
:102CB00000300140DE3300200038004015202000A5
:102CC000EC1B0020940C002084F858266F1E7B42D9
:102CD0007B4184F85C36069B14221B6803F4004792
:102CE000C3F3C03384F85A3617F03BFC012E04BFFF
:102CF00094F8593684F860361FB194F85B3684F83E
:102D00006F3694F85E361BB194F85F3684F86A36F5
:102D1000012D08BF94F85D36C04D08BF84F86536B4
:102D200000232E464FF0070B1F469946DFF83C83E1
:102D300008F1940A3078E8B108F0ECFA18B180F89C
:102D400006B080F80790002108F00AFB00233178D4
:102D50001AF813005A00884240F0BD8208EB0203C3
:102D600093F8953073700723337101237A1CB77081
:102D7000F370D7B20BF1010B5FFA8BFBBBF10B0FBA
:102D800006F10506D6D1002B00F0BB80A44E4920E9
:102D9000736843F44043736010F020FCA14AA249D9
:102DA00000234FF01C0E104688460EFB032CDCF867
:102DB00004C08C4540F09582DBB21C2101FB03036B
:102DC000726919694FF000090A437261062283F89B
:102DD00019901A76944811F036F913A811F008F9F1
:102DE000924B022F139334BF4B46802318934FF41A
:102DF000807319934FF480631A9320231B934FF42D
:102E000000538B4E13A9884816971C931496CDF83F
:102E10005490CDF85C90CDF8749011F0F6F8012F35
:102E200094BF00220122D8F80030824943F0010308
:102E3000C8F800304B684FF0070E23F4702323F4DA
:102E4000807343EA02234B608A687B4B134043F450
:102E5000602343F002038B60CA6A7B1E22F4700277
:102E6000DBB242EA0353CB621F270123EA784AB35D
:102E700095F80180581CB8F1090FC0B295F804C04C
:102E800040F23582A8F10A02D1F80C9002EB42021E
:102E90000EFA02FA29EA0A090CFA02F242EA0902D7
:102EA000CA60062B00F2308203F1FF3C4A6B0CEB48
:102EB0008C0C07FA0CF322EA030308FA0CF21A430B
:102EC0004A6303460535AE42D0D15A4B9A6842F464
:102ED00080729A609A6842F001029A609A6842F0A1
:102EE00008029A609A681007FCD49A6842F00402BB
:102EF0009A60504B9A685107FCD49A6842F4A00239
:102F00009A60D4F87C06002841F02A81D4F88036F3
:102F1000002B41F02581D4F88436002B41F020812C
:102F20000BF0EAFD30B90120022108F0CBFA0120B4
:102F300013F0AEFA012194F8C534084643F00203B9
:102F400084F8C53408F080FA0021084608F07CFABD
:102F50000021022008F078FA0A25384E012008F0F6
:102F6000CBF9002008F0C8F9192008F026F93368D9
:102F7000DA0302D4012008F03BFA192008F01DF909
:102F8000002008F035FA013DE8D12946284608F02E
:102F90005BFA2946012008F057FA294B294F186897
:102FA00012F048F8BA89002A40F0CB81264B0DF187
:102FB0004C08587A13F0E4FF244914F035F82449FA
:102FC00013F02AFF0CF001FE224B1860224B988A66
:102FD00013F0D6FF0146214814F0DAF8C4F8880649
:102FE0000EF07EFB01231393069B1A68530201D453
:102FF0001B4B1393D70058BF139B1A485CBF43F079
:1030000010031393184B029019688E0742BF139B4D
:1030100043F0C60313934C072AE000BF940C002032
:10302000001002402C000020080002404C24014007
:10303000A80C002000240140FDF7F1FF9429002096
:1030400084230020423700203C2B002035FA8E3CA0
:10305000DB0FC93F542B00201C210020A889803A97
:1030600001000010902300208C230020F8A6010806
:1030700042BF139B43F008031393139B43F000617B
:103080001391017801F0EF04082C01D00E2904D12E
:1030900043F0006343F480531393139BD00354BF56
:1030A00043F4005343F420431393139BD7044CBFC2
:1030B00043F0644343F044431393960642BF139B8B
:1030C00043F480731393540742BF139B43F40033BC
:1030D0001393139B43F400201390500505D5A74A82
:1030E000127912B143F4C0131393182908BF139B2C
:1030F0004FF0010604BF43F060731393172314933A
:1031000029464046ECB20CF0FDFE70B120460FF0AF
:10311000BEFB50B96A0958F8223004F01F0406FAC1
:1031200004F423EA040448F822400135252DE7D1B0
:10313000934D98E8030005F28C6383E803004FF495
:103140001972002105F2946017F00BFA06F0D0FF17
:1031500000228C4F8C4C0397A7608C4F8C4BBE4643
:103160008C481A809A708C4E8C4BDFF85C9203600E
:10317000338BDFF858A2C4F8049085F8F82819B208
:10318000049005F6FC0CDAF8000027F8121000F5A0
:1031900096704CF822000132122AF4D1804FDFF8E9
:1031A000ECC13868C20458BFB6F92410AEF8061056
:1031B0007C4901F1500E0A78AAB98A7891F803A0E7
:1031C000524510D2002A00F0D080013A02EB820270
:1031D00002EB820202F5617291F801A092B20AF14B
:1031E000040A2CF81A2004318E45E4D1020740F17C
:1031F0006781307A0A2800F25C81DFE810F0ED0088
:10320000ED00230462048604A604A604EA045A011D
:103210002705ED001B8D644A9BB212680133B2FB97
:10322000F3F3624A1370FFF7C4BB08F073F8402150
:10323000C4F84006054630460DF0F2FE0646CDB114
:10324000C0B12423AB7101231A21EB71284608F089
:1032500087F80021A4F8447601915549554A91FB1D
:10326000F7F192FBF7F389B200919BB231465248D5
:1032700013F002F80023D4F82C26138084F83D368E
:10328000FFF7E8BB4D4AD1680B43D3603AE44B4AA1
:1032900011690B43136135E4494B9A420AD103F596
:1032A000EC33196941F480411961196921F48041B5
:1032B00019615FE4434B9A427FF45CAC03F5EA3357
:1032C000196941F400411961196921F40041EFE7DE
:1032D0000123022054E401330A2B7FF439AD00238B
:1032E00040E50133072B7FF460AD002365E50A69F3
:1032F00008EB480A0EFA0AF922EA09090CFA0AF25E
:1033000042EA09020A61CCE50C2B0DD8DA1FD1F88C
:1033100030C002EB820207FA02F32CEA030308FA38
:1033200002F21A430A63CCE50D3BCA6A03EB83033E
:1033300007FA03FC22EA0C0208FA03F31343CB62F8
:10334000BFE52E46DFF88890DFF88880B88913F053
:1033500013FED9F80020014608EB060024360CF0D5
:103360003FFDB6F5907FF1D120E60AF1010A0AEBA4
:103370008A0A0AEB8A0A0AF561722DE77034002086
:1033800034060020992E0108D02F0020841F002031
:10339000FC1B0020B02F0020AC350020A0860100CF
:1033A00094230020A02900202800002022000020D3
:1033B00020A1070040420F00600C002000100240D6
:1033C00000380040003C00409D2E0108F0350020F0
:1033D0006C23002054370020BC4B40201C6006F0BA
:1033E00065FE8346002864D00023B94A0693137013
:1033F000059211F023F8317A82460129059A0DD001
:10340000069BC0F0DB820A2916D1B24B1B6813F46D
:1034100080631CBF80F00103DBB213700322AE4B4C
:103420001A700722AD4B1A700122AD4B1A700C2393
:10343000237042F6F8236380AA4BA54A6360AA4B27
:10344000A3609BF90200BAF1000F40F0C482137828
:10345000002B0CBF012303231278002A40F0BD8209
:10346000B27A002A0CBF00220822019200939F4AE0
:103470004FF4E133402106F065FC9D4B1860BAF132
:10348000000F01D09B4B1860737D2178013BDBB2AC
:10349000994A994213709CBF0023137028B18C4B3A
:1034A0001B7813B1012385F84439003018BF01207F
:1034B00030B908200CF008F9039BC4F80490A3600D
:1034C000844B1A68039312F4804F0BD0122323709D
:1034D00044F620636380894B04996360884BA36042
:1034E000884B0B6042F201031A4209D044F6206374
:1034F0006380930440F1D58308232370824B63607B
:1035000096F82830217804338B42A8BF0B464FF041
:10351000000B7E4CD10385F8453984F800B040F1AA
:103520008E8107F037F901232370794B40F22A325C
:1035300093F8F1905946774817F013F8B9F1000F56
:1035400000F07081594648460DF06AFD724A0168E4
:103550000446116081689246002900F06381484664
:1035600007F0D8FEC5F8480918B1282380F807B03D
:1035700083711B2107F0F4FE0023684ADAF800107B
:1035800002F1180E5EF833004FEAC30C814240F09E
:103590008F836244107F10F021F8DAF80000604A4F
:1035A00003884FF0000B23F001031B041B0C038066
:1035B0005C4BDFF87CE11B68ADF836B0934281BF0D
:1035C00003F1B772584902F55852B2FBF1F292BFBB
:1035D000002202F1FF3292B2511CB3FBF1F35349C6
:1035E000ADF832B0B3FBF1F303219BB2B3FBF1F1C1
:1035F0004FEA410CAEF800C0DFF838E18DF838B082
:10360000AEF800101EA921F8482DADF8343010F0A6
:103610004EF86023ADF83EB0ADF840B0ADF842B022
:10362000ADF844B0ADF848B0ADF846B0ADF84AB02A
:10363000ADF83C30E3794FF000095A0757BF01223B
:103640000422ADF83E204FF4807203F002034CBF19
:10365000ADF84020ADF84820ADF84430ADF84290C8
:103660000FAA6179DAF800000DF0E6FB6179DAF86B
:1036700000000FF0EFFFDAF800100120B1F844204D
:103680004FF0280C6FEA42426FEA524292B2A1F820
:1036900044200A88DFF8A0B092B242F080020A808B
:1036A0006279B1F820E000FA02F292B21FFA8EFEBF
:1036B0002EEA020EA1F820E0B1F820E01FFA8EFEFB
:1036C00042EA0E024FF01C0E0A8437E070300020F0
:1036D00075300020942300206F30002074300020CB
:1036E000AB2E0020152A01082130010841310108C4
:1036F000D4300020DC3500206E300020152F01086A
:10370000FD2E0108400D0300ED2E0108641F00206E
:103710005C1A0020301C0020601F0020F8A6010861
:10372000FF6BDC0228000020006CDC0200350C007E
:103730002E1C00202C1C00205C1F00200A8892B246
:1037400002430A80227BA6490EFB0212A549D2F849
:1037500010E04B694EEA03034B6182F818C082F80F
:1037600019904B694EEA03034B619F49C2F81490CC
:103770009160527B8DF84D008DF84F0013A88DF8A5
:103780004C208DF84E900FF047FFA068CBF800005A
:1037900010F059FCDBF80000026822F0010212046C
:1037A000120C026010F04FFC13A810F021FCDAF8A4
:1037B0000020617934320A44139240F22A32169280
:1037C00080221892894A13A91492102215924FF45C
:1037D000007219924FF40052DBF800001C92CDF8F1
:1037E0005C90CDF86890CDF87490CDF86C9010F0A6
:1037F0000CFC6279DAF800100C2A8EBF4B467C4B29
:1038000003EB42038A8998BFB3F8A83092B21343FE
:10381000DBF800208B81136843F002031360012260
:10382000744B1A700023FF211C4673481A181C524F
:103830000433802B9170D170F8D107F01BF8039BF3
:103840001B6858053FD5042006F030FC6B4B042163
:10385000186006F021FC6A4B1870082006F026FC60
:10386000684B0821186006F017FC674B2C22187073
:103870000021664816F075FE7C2385F84C398E23AE
:1038800085F84D39E02385F84F397D23202085F8D0
:10389000773906F00BFC5E4B2021186006F0FCFB2C
:1038A0005C4B18704FF4805006F000FC5A4B4FF4FC
:1038B0008051186006F0F0FB0022584B1870584BEE
:1038C0001A7010F0D3FD574C2288002A40F05E8217
:1038D000554B95F88809C5F87839022385F87C3965
:1038E00095F88939013B5BB2012BDEBF4F4A1B01C2
:1038F000D258C5F88029002800F0488207F00AFD58
:10390000C5F8840918B11A2383710023C3711321E8
:1039100007F026FDD5F87839986807F048FD00BF14
:10392000D5F878390221586807F0FFFD4FF00009FB
:103930009F2332208DF83C308DF83D908DF83E90DD
:103940008DF83F9007F039FC8DF84D9000BFD5F809
:103950007839986807F026FDD5F8780942460FA90E
:103960000423406807F000FED5F87839986807F01E
:103970001EFD00BF9DF84E309DF84D201B0243EA0E
:1039800002439DF84F201343294A934200F0B98324
:1039900000F39481274A934200F0998101329342C7
:1039A00000F0E781A2F51A42033A934200F0A483A3
:1039B00000232380A3816360A360E7E102211E4A04
:1039C000117003211D4A11701D4A137007232370C3
:1039D00045F2F0532FE503233EE5082245E500BFFD
:1039E0002C00002000100240BBFF0008301C00200B
:1039F000F8A601085A1F0020501B0020D8350020CF
:103A0000E0350020A8350020E1350020800F00209F
:103A1000E8350020E3350020F8350020F43500209B
:103A2000F53500204C040020B00F0020A427002012
:103A30001620C20017BA20006F300020743000201A
:103A4000AB2E00200A221B0193FBF2F30022A149B6
:103A5000A3F5B06341F822300132122AFAD142F6BE
:103A6000F82363809C4B402063609C4B2270A360D2
:103A700006F01CFB824600283FF41BAD10F0DEFC74
:103A8000737AB17A00280CBF01220322002B0CBFED
:103A90000623072300290CBF002108219AF902E020
:103AA00082460B438DE80C008D4B8E4A40217046B8
:103AB00006F048F9BAF1000F3FF4F7AC8A4B1860F2
:103AC000F3E41023237042F6F8236380874B4020F1
:103AD0006360874BA36006F0E9FA824600283FF452
:103AE000E8AC10F0ABFCB27A00280CBF0123032332
:103AF000002A0CBF002208229AF902E001920093EA
:103B000082464FF4E1337B4AD0E70823237042F624
:103B1000F8236380784B40206360784BA36006F005
:103B2000C5FA824600283FF4C4AC10F087FC00229E
:103B300000280CBF012303239AF902E001920093AD
:103B400082464FF4E1336E4AB0E700234FF00C0E8B
:103B50006C4A6D4913706D4A062884F800E00B70BA
:103B600013702BD01B226A4B4FF4E13B1A700522D5
:103B7000684B83F800E0684B1A7042F6F8236380C4
:103B8000664B40206360664BA36006F08FFA824666
:103B900000283FF48EAC10F051FCB27A00280CBF24
:103BA00001230323002A0CBF002208229AF902E015
:103BB0000192009382465B465A4A77E72122544B92
:103BC000DFF89CB11A70534B83F800E0524B187029
:103BD000D3E74FF0000B544B402083F800B00E2386
:103BE000237044F620636380504B6360504BA360A6
:103BF00006F05CFA00283FF45CACB0F800A04D4B36
:103C00000AF4825A83F800B0B37ABAF5825F90F969
:103C1000020014BF01220322B3B9BAF5825F14BFB8
:103C20005B4608238DE80C0040214FF4E133424A03
:103C300006F088F8BAF5825F7FF437AC00223F4B7C
:103C400018603F4B1A7030E40823EBE70A221B018F
:103C500093FBF2F300223B49A3F5B06341F8223015
:103C60000132102AFAD142F6F8236380364B402005
:103C70006360364B2270A36006F018FA00283FF408
:103C800018ACB37A90F90200002B0CBF0023082374
:103C9000019303232E4A009340212E4B06F052F845
:103CA00003E4D0077FF52CAC0C2323702A4B26E4C9
:103CB0000133042B7FF466AC00206CE4274A934266
:103CC00000F021824EDC023A93427FF471AE8023F1
:103CD00013E200BFDC2E00203D2A0108592A01080A
:103CE000A08601008D310108DC3500207D29010806
:103CF0008D2901087D2F0108FD28010811290108DF
:103D0000352F0108D9260020D0260020D8260020F3
:103D1000DA260020D8300020FE26002073E80008B4
:103D200089E800089DE8000897300020252F010849
:103D30000D33010895300020393201085C34002031
:103D400068340020402F0020D92B0108092C0108DD
:103D5000E1310108A0680600DD2E01081920C2002B
:103D600090D00300BC4A9342B1D0013293427FF419
:103D70001FAE4FF480732380A381638822881B02C7
:103D800063605343A360012385F88A39A468C4B1F2
:103D90004FF0000AE40A0DF14C0BA2450CDA0AEBD5
:103DA00004094FEA6909102241464FEAC92008F088
:103DB0003BFD0F2800F3AA8108F0DAFCA74BE402D0
:103DC0001C600023A64A1360A64A1380A64A1380EB
:103DD000A64A1380A64A1360A64BA74A19689946BB
:103DE0001F2940F09D814FF48063A4491380088807
:103DF000A34C002840F09D8120808978A14B01B11F
:103E000001211970B2F900309F4A1B021360029B16
:103E10009E481B78052B02BF4FF4C8729C4B1A803A
:103E20000AF0CEFDC8229B4B00211A809A4AA5F8C1
:103E30008C191378A5F88E1943F008031370032327
:103E4000964A85F88B391370954A964B1170642207
:103E500019705A705960944B19805980934B5A7954
:103E60009A46012A09D12822914816F07AFB4CF291
:103E70005032904990480BF0B3FF00218F4B85F8EA
:103E8000B8191960596099609AF80630012B09D168
:103E900010228B4816F065FB4CF2503289498A4853
:103EA0000BF09EFF894B8A4A1B684FF0010B3B6069
:103EB000884B80201B68DFF83C829B1A18BF0123C7
:103EC000854A864C137012F0E3FA0021442284489C
:103ED00085F8F0B916F045FB0023824A4046C5F844
:103EE000F439136005F0EAFD2368D9070AD5D9F83B
:103EF00000305946642BB8BF64235846C8F8443094
:103F000005F014FE23689A070AD50121022005F066
:103F10000DFE754B1B6B642BB8BF6423C8F878305B
:103F200021680320C1F3400105F000FE01210520B6
:103F300005F0FCFD6D4B9AF805B01A8C6C4B072010
:103F400093FBF2F3642BB8BF64231BF10001C8F8A4
:103F5000143118BF012105F0E9FD9AF806900820F8
:103F600019F1000118BF012105F0E0FD9AF80A30AF
:103F7000002B40F080819AF80B30002B40F07B81C1
:103F80003968C1F38041BBF1000F03D1B9F1000FD3
:103F900000D14946092005F0C9FD0121042005F0A2
:103FA000C5FD95F84419062005F0C0FD01210A2041
:103FB00005F0BCFD21680B20C1F3800105F0B6FDC2
:103FC00023680C2013F0140F14BF0121002105F009
:103FD000ADFD39680D20C1F3802105F0A7FD3968DA
:103FE0004B0507D5337A083B012B9CBF4FF4FA638E
:103FF000C8F8B4320E20C1F3004105F097FD4FF42C
:10400000804006F053F868B10022032390F90200C3
:104010004FF48041009301924FF4E13305F092FE9A
:10402000C5F8F809D5F8F83963B10121022385F8FC
:10403000FC1985F8FD1985F8FE190F2085F8FF3960
:1040400005F074FD95F8C53463F07F0385F8C53439
:104050001FB0BDE8F08F00BF1740EF00483B0020C5
:10406000D4210020D8210020DA210020DC210020EA
:10407000D0200020CC330020CE3B0020383B002055
:10408000D03B0020DE210020D4200020FC31002085
:104090006414002062140020E8200020E71B0020A8
:1040A0007E340020741000206A340020EC1B0020B5
:1040B000C40F0020CDCCCC3DC80F00208C210020A7
:1040C000F00F0020CDCCCC3E001000208429002031
:1040D000BF610108002B0020481200208C23002023
:1040E0001C250020182500201C210020DE33002084
:1040F00040420F000C010020202323804FF48073E6
:104100003AE64023F9E74FF40073F6E700235BF843
:104110002320013220D10133042BF8D14C463CE658
:104120003F2916BF4FF4FA434FF40073B3FBF1F38A
:104130005BE6B2F90030984204DD1F2B02DD01235B
:1041400023805AE693FBF0F3FAE732F83330002B82
:104150007EF446ADFEF73CBD09F1010AA146DDE75C
:104160000022464B00B21A7012F00AFF444912F0C6
:104170005BFF0746B4F9800612F002FF404912F0D7
:1041800053FF0646B4F9840612F0FAFE3C4912F0D9
:104190004BFF3C490546384612F03EFE0BF015FD3C
:1041A000814638460BF011FD36490746304612F07D
:1041B00033FE0BF00AFD804630460BF006FD314918
:1041C0000646284612F028FE0BF0FFFC83462846E0
:1041D0000BF0FBFC49468246584612F025FF494643
:1041E0000290504612F020FF59460390384612F0D4
:1041F0001BFF51460490384612F016FF41460590C9
:10420000584612F011FF204D5146286008F1004039
:1042100012F00AFF04996860AE60304612F004FFA5
:10422000039912F0F9FD0599E860304612F0FCFEA2
:104230000146029812F0EEFD4146286107F1004068
:1042400012F0F2FE02996861304612F0EDFE01466E
:10425000059812F0DFFD0399A861304612F0E4FEE4
:10426000049912F0D9FD4946E861404612F0DCFE9F
:104270002862FEF755BE012185E600BFF000002050
:1042800035FA8E3CDB0FC93F002700202DE9F04FA7
:10429000B24B97B01B780490012B07D1B049B14ABB
:1042A0000968C9691180B04909885180AF4C2278EA
:1042B000002A00F0E984072B40F0FF8106F02AFF76
:1042C0000790AB4F3B68069713F4806F05D0A94861
:1042D000836813B100F142019847A74BA7491B68B7
:1042E000B1F906505A890891954280F2E9814FF060
:1042F0007E53636094F90C304FF00008002B14BF1C
:1043000001234FF0FF339E4A94F809A0168B94F8CE
:1043100008909C4F05930992089B33F918B0ABEBBA
:1043200006000028B8BF4042B0F5FA7FA8BF4FF49E
:10433000FA70B8F1020F00F0D6814845CCBFA0EB6F
:104340000900002012F01CFEB34547F82800C0F217
:10435000D88108F10108B8F1030FDDD1069B1F6871
:1043600017F4805800F0D481B5F5FA6F2B46A8BF3A
:104370004FF4FA63B3F57A7FB8BF4FF47A73A3F5BD
:104380007A73227C22B1627C5343642293FBF2F362
:104390004FF0640E93FBFEF27B4802F1010C30F902
:1043A000121030F91C006FF0630C0CFB0233401A42
:1043B000584390FBFEF0084400B212F0E1FDDFF834
:1043C000C4918246C9F80C00B8F1000F1DD01D2021
:1043D00011F0C6F9C8B16D4BDB78B3B96C495046E2
:1043E00012F018FD12F0FCFF4FF47A7300B20003D4
:1043F00090FBF3F3C6F5FA6000B2584340F30F3078
:10440000304412F0BDFDC9F80C00624B1E887306E3
:104410003BD5614BB3F904000A2390FBF3F0238BE7
:10442000C01A00B212F0ACFD5C4912F0FDFD5C490F
:10443000044612F0F1FC0BF0C8FB834620460BF05B
:10444000C4FB504C8146236859461846069312F027
:10445000EBFDD4F804A005905146484612F0E4FD67
:10446000059A0146104612F0D5FC59462060504688
:1044700012F0DAFD069B82461946484612F0D4FD3A
:104480000146504612F0C8FC6060464B374C1B6832
:1044900013F0140F1AD016F4027F17D0424BDFF836
:1044A000E4901A7812F0100200F04781A37EE069D0
:1044B000002B0CBF01234FF0FF33584312F060FD77
:1044C000D9F8041012F0A8FCC9F80400374BDFF843
:1044D000B0901A780693A2B1B9F81A30AB4210DB4B
:1044E000334B1B78012B01D0192B02D1314A927B1F
:1044F0003AB90E2B05D0082B1FBF0023214A636455
:10450000936094F84A50002D65D0B00763D02A4BD1
:104510002A491E6A304612F02FFF002840F05981C8
:10452000304613F0CBFDE16C12F07EFD13F04EFD32
:10453000B0F5617FA8BF4FF4617012F021FD2049F2
:1045400012F072FD0BF041FB0646284612F018FDF2
:10455000314612F069FD13F039FD33E08823002065
:1045600044360020602100207025002064100020C7
:10457000942300205C310020103B0020841F002089
:10458000AC35002080340020143B0020FC1B0020B0
:1045900000007A44AC1F0020AA36002035FA8E3C79
:1045A000DB0FC93F8C230020E82000200000002002
:1045B0009023002042370020142B00208FC2753C2E
:1045C000D06D393A00B212F0DBFC874D0146E86845
:1045D00012F022FCE86094F850A099F81F50BAF14C
:1045E000000F5CD0814B0420D3F8EC6044F62063CC
:1045F0009E42A8BF1E46B6F57A7FB8BF4FF47A76C2
:10460000B6B2A4F8526011F0ABF808B9F90046D57B
:104610004FF47A73B6FBF3F6642393FBF6F6DFF8F8
:10462000DCB1142EA8BF1426DBF80030B8F1000F5F
:1046300000F0D1805F8E7F086B49636DD1F80C80EC
:104640005A1C626504EB430340460892059312F03E
:10465000C7FE089A059BB242A3F85800A4BF0023E6
:104660006365636D04EB4303B3F9580012F088FCF3
:104670000146404612F0CEFB12F0B2FE00B2002816
:10468000B8BF4042B84240F3A980DBF80030988EB2
:1046900012F076FC564912F0C7FC069B586099F858
:1046A0001E30002B00F0CD81022B00F0A980032BDF
:1046B00000F09B814F4B5888A7E00023079300E64A
:1046C000B5F5FA6F187ABFBFAB1A5843C2F5FA6254
:1046D00090FBF2F0C0F1640012F052FC464912F077
:1046E000A3FC606006E65045D8BF0020059BC8BF0C
:1046F000A0EB0A00584312F043FCB345B860BFF684
:104700002DAE57F8281001F1004147F8281020E697
:10471000099B5A8B95420EDBB5F5FA6F2B46A8BF65
:104720004FF4FA634FF47A719B1A4B43C2F5FA6265
:10473000B3FBF2F325E61346F4E7E17AB4F920304F
:10474000A07A61B3E91A0029B8BF4942814210DD5D
:10475000626201229D4284F82820C8BF404212F0C4
:104760000FFC0146D9F80C0012F056FBC9F80C00FA
:10477000ACE694F8281019B1216BE16284F8282086
:10478000E0691844B0F5FA6FA8BF4FF4FA60B0F5CD
:104790007A7FB8BF4FF47A7012F0F2FBE6E7EA1ABC
:1047A00082EAE27EAEEBE27E864507DD022192FBE5
:1047B000F1F26263012284F83820DFE794F82820C0
:1047C000002ADDD0226B84F83810E26284F82810C9
:1047D000D6E70020F6E6B3F932702DE74FF07E53AE
:1047E000069A53605BE700BF803400200C01002074
:1047F0006F12833AD02F00200AD7233C8423002055
:10480000B4F8520000F57A7080B20235EDB2BAF118
:10481000000F00F0FF80002800F0FC808D4B002688
:104820001B688D4FB0FBF3F000B2A4F8800012F0CB
:10483000A7FB01464FF07E5012F0AAFC8046DFF83D
:10484000209207F1100AAE42C0F2D780834B1B784A
:10485000092B11D1824B834E186813F0B7FB824BA2
:104860003080D3F8EC004FF47A7390FBF3F012F041
:1048700087FB12F0B5FD7080B4F98030002B40F357
:10488000E28000273E46DFF81482DFF8D4A1A8F1C9
:104890001009AF42C0F2C48094F850300025002BBC
:1048A00018BF0226714BDFF8F891D3F800806B4BEC
:1048B0001B78089308F105030993B54240F3F28091
:1048C000089B6B4D092B07D1664EB5F88030E86B1D
:1048D000B38012F085FDF080664B93F82160002EC6
:1048E00060D01E2010F03CFF00285BD0624B1B887C
:1048F0005A0657D495F8BC30B34214D085F8BC6042
:10490000304612F03DFB5D4912F08EFB5C490646D5
:1049100012F082FA0BF059F95A4B986030460BF0BE
:1049200054F9C5F8C000069BE66BD3F808903046F2
:10493000494612F079FBD4F84480D4F8C07082461E
:104940003946404612F070FB0146504612F062FABA
:104950004D49824612F010FD08B9DFF82CA14B49F1
:10496000504612F013FD08B9DFF820A14946404631
:10497000C4F83CA012F058FB39468046304612F08D
:1049800053FB0146404612F047FA3F49064612F0F3
:10499000F3FC00B93C4E3D49304612F0F7FC00B93B
:1049A0003A4E6664002385F85030394B1B78002B53
:1049B00040F05D81374DAA78002A00F05881364CCE
:1049C0002378013B0D2B00F23F81DFE813F011014A
:1049D00024012E0121023D013D013B024F028705CA
:1049E000A405B505D405DF05E80599F82000C0EB5E
:1049F000401300EB8300C00006E75AF8261059F870
:104A0000260012F007FA414612F00EFB47F8260086
:104A1000013618E7B4F88030013BA4F880302BE76A
:104A200058F8270059F8271012F0F6F9022F3E46E1
:104A3000B8BF022648F827004AF82700F6B2013727
:104A400027E7A4F8803094F85030002BADD0002632
:104A500022E700BF6C230020E810002088230020FC
:104A600080340020602100200C010020103B002039
:104A700064100020AC350020AC1F002035FA8E3CBD
:104A8000DB0FC93F0000002000C0F94400C0F9C49A
:104A900010250020383B0020DE210020F8100020E7
:104AA0000AD7233C022D15BF98F8000098F80100A2
:104AB00098F802B098F809B012F062FA494612F07C
:104AC000B3FA4FF08041074612F06AFC60B14FF034
:104AD0008041384612F09EF9A94912F0A5FA014624
:104AE000384612F099F90746AB000593A54BA64945
:104AF00053F8250012F098FA20F00043A34A0593DA
:104B0000059B42F825000C32824642F82530BBF165
:104B1000000F20D0584612F033FA494612F084FABA
:104B200083465146504612F07FFA059912F07CFAFE
:104B3000594612F079FA59460A904FF07E5012F019
:104B400069F90A9A0146104612F066F90146504684
:104B500012F06AFA82468E49384612F065FA5146DA
:104B600012F062FA099B074613F8010B099300B390
:104B700012F006FA494612F057FA059912F054FA63
:104B80008449824612F00CFC68BB0021504612F0AA
:104B9000E9FB50BB51464FF07E5012F03BF9014605
:104BA0004FF07E5012F0F4FA0146384612F03CFA0B
:104BB0000746089B0C2B05D1384612F011FC764BAA
:104BC00023F815007549384612F0D6FB00B9734F2B
:104BD0007349384612F0DAFB00B9714F714BAA00E5
:104BE000D750013569E64946DAE74FF07E51D7E7FD
:104BF0006D4B1B78DB0707D580200EF025FF08B131
:104C000005F088F812F056FE1F2010F0A9FDD8B16B
:104C10000C23237018E00022644B1A60644B1A6066
:104C2000644A12685A600323F3E710F03FFE604EB7
:104C3000604B1A6873686433934205D2402010F0C9
:104C40000FFE002800F0C08010F052FE064600283B
:104C500000F0AC8423780C3B022B08D9012323708D
:104C6000554B93F8032112B1002283F80321534BD3
:104C70001B78072B05D106F04DFA079BC01A464B4F
:104C8000988000224C4B1A704C4F3B78072B40F019
:104C9000E78406F03FFA0790494C6368204698473E
:104CA000A246002855D00026B4F8A05084F84760EA
:104CB000DFF81091002D40F02785626AB4F93C308E
:104CC00094F848109B1A2363A26AB4F93E3004F1A9
:104CD00030009B1A6363E26AB4F9403004F12C0897
:104CE0009B1AA36309F07CFE4C46DFF8AC900AF5F2
:104CF000927658F8040F12F043F9DAF8201012F007
:104D000093F93B788346082B03D113F05FF929F818
:104D100015005946DAF8203130469847DAF89031D4
:104D2000014606F1700098473B788346032B03D178
:104D300013F04CF929F81500DAF8A4305946D8F8E0
:104D4000E40098470135032D44F8040F06F12406CA
:104D5000CFD11A4C2278072A05D106F0DBF9079B40
:104D6000C01A0D4B1880144A92F809311546002BD1
:104D700000F09885013B82F8093117B0BDE8F08F4B
:104D8000D7A36841803400206F12033B0811002034
:104D900000004843A4707D3F6021002000C0F9441A
:104DA00000C0F9C4A0100020DC1B0020343B002010
:104DB00060230020F03500206410002088230020AC
:104DC0005C310020CC330020DFF85C834027C246F2
:104DD000DFF85893336818F8030068B110F0FEFD4F
:104DE000D9F80030013F03F1FF33C9F800303368D0
:104DF00003F101033360EDD133681AF80330002B5F
:104E00007FF422AF33604FF0FF337360042300E779
:104E100010F04CFD904A5021A2F10C03019326237F
:104E2000029200934920A2F10A03163A06F080FF8D
:104E300000287FF409AF4FF0FF32884B18605A60AA
:104E40000723E6E610F032FD052300210093844B92
:104E500002910191A3F10802532006F069FF002896
:104E60007FF4F2AE7D4B18600823D2E610F01EFDF1
:104E70007C4B7D4E186813F0A9F88046D6F8C40024
:104E800013F0A4F88146402010F0EAFC31460028D7
:104E90007FF4DAAE714E754F336878784C2B01F29F
:104EA0003583DFE813F04D005300610068006C00AB
:104EB00070007600840088008D00920097009E00AC
:104EC000A300AF00B900BE00C900CE00D300450169
:104ED0004D0155015D0165016D0175017D01850182
:104EE00092019B01A401AD01B601BF01C801D1012E
:104EF000DA01E001E901F001F601FC010202080219
:104F00000F0216021D0223022902300237023D025F
:104F1000430249024F02530257025C02B702BC022D
:104F2000C202C802D502DA02DF02E402E902EE029E
:104F3000F402F902FE02030308030D031203160331
:104F40004B4A4C494C4810F01CFE09E04B4B484A78
:104F500001934B4B4B4900934B484C4B10F011FEC7
:104F60003368013333606FE6494B4A4A4A494B483C
:104F700010F007FEF4E74A4A3E494A48E3E74A4A46
:104F80003C494A48DFE74A4B4A49B3F900204A48BE
:104F9000D9E710F033FE2A8845494243B1F90010A1
:104FA000034692FBF1F24548D2B24549E0E72A8830
:104FB00040494448C7E7444B3E491A8A4348C2E740
:104FC000414B3C495A8A4248BDE74FF07E52414925
:104FD0004148B8E71FFA89F31FFA88F23F49404871
:104FE000C6E7404B40499A8A4048ACE7404B1B68B3
:104FF000DF0404D591F8C8203E483B49A3E70F23BE
:105000003360ADE73C493D488B784A780978009198
:105010003B4910F0B6FDA3E73A4B33491A883A48AA
:1050200091E7354B9B79012B9AD1B1F9CC30B1F98D
:10503000CE20364829499BE7354B1E491A6835482A
:1050400081E7354B1B499A7834487CE7344B194942
:105050001A78344877E700BF22A8010860230020AF
:10506000DCA90108FC21002064100020802B002016
:10507000F9C40108F1CC010805C5010839C50108CA
:10508000ECC4010819C5010827C5010813C50108AA
:10509000E3C40108D7C40108C8CA01083EC5010815
:1050A0000C0000204CC501088B2B00205FC50108B7
:1050B000CE3B0020B6E201086AC501087BC50108A5
:1050C00075C5010886C50108E42100208EC50108C8
:1050D0009AC50108DDCF0108A6C501087DC60108F3
:1050E000B1C501081C210020B1CA0108BDC50108D5
:1050F000E0210020C4C50108EC1B0020D8C5010830
:10510000CFC50108FA210020E8C50108F0C5010853
:10511000CC330020FEC501084C31002007C6010831
:10512000183A002017C60108BCA70108343B00202C
:105130000C2303FB00118C4891F8D0208B4902E727
:105140000C2303FB00118A4891F8D2208749FAE624
:105150000C2303FB0011874891F8D1208349F2E624
:105160000C2303FB0011844891F8D9207F49EAE61B
:105170000C2303FB0011814891F8D3207B49E2E620
:105180000C2303FB00117E4891F8D4207749DAE61E
:105190000C2303FB00117B4891F8D8207349D2E619
:1051A0000C2303FB00117848B1F8DA206F49CAE6F6
:1051B0000C2303FB001191F8D63091F8D52091F81B
:1051C000D71072480091724923E7724B72481968F0
:1051D0004B780A78897800916D491AE76D4B6F48D2
:1051E00019680B79CA7849790091694911E7694BC7
:1051F0006B481968CB798A79097A0091644908E784
:10520000644B684819688B7A4A7AC97A0091604978
:10521000FFE6604B644819684B7B0A7B897B0091F1
:105220005B49F6E65B4B614819680B7CCA7B497C9D
:1052300000915749EDE6574B5D481968CB7C8A7C55
:10524000097D00915249E4E6524B5A4819688B7D1A
:105250004A7DC97D00914E49DBE64E4B43491B68B0
:1052600055481A7E6FE64B4B544819680B7FCA7E2F
:10527000497F00914649CCE6464B3C491B68504863
:1052800093F826205FE6434B38491B684D481A8C3B
:1052900059E6404B35491B684B48DA8B53E63D4B8A
:1052A00032491B6849485A8C4DE63A4B2F491B68D6
:1052B00047489A8C47E6374B2C491B68454893F87A
:1052C000272040E6334B29491B68434893F82C209C
:1052D00039E6304B25491B68404893F82D2032E6CB
:1052E0002C4B22491B683E485A8E2CE6294B1F49FD
:1052F0001B683C489A8E26E6264B1C491B683A4898
:1053000093F836201FE6234B18491B68374893F85B
:10531000372018E61F4B15491B6835481A8F12E6CF
:105320001C4B12491B6833485A8F0CE6194B0F4926
:105330001B6831481A8D06E6164B0C491B682F482E
:105340005A8D00E60A7A2E480849FCE54A7A2D482B
:105350000649F8E52C4B0549DA782C48F3E52A4B49
:1053600002491A792A48EEE529C60108B6E2010881
:1053700031C6010839C6010845C6010851C60108F1
:1053800059C6010862C601086BC6010883C6010838
:105390007AC601088423002089C6010891C6010845
:1053A0009AC60108A1C60108A8C60108AFC601082F
:1053B000B7C60108BFC60108C8C60108C1C60108B2
:1053C000CFC60108E1C60108EEC60108F9C601080A
:1053D00008C701081BC7010828C7010836C701080C
:1053E00047C701085EC7010870C701088AC70108DE
:1053F000A0C70108AEC70108B8C70108C5C70108A2
:10540000E1D90108D6C701084C310020E3C70108E3
:10541000ECC70108944B95495A79954893E5924A0F
:105420009449938994481289A2E58F4A9149D38976
:10543000924852899CE5924B188811F0A1FD914940
:1054400011F0F2FD11F0CCFF884902468E487AE552
:105450008B4B8649DA788D4875E58D4B83495A79AF
:105460008C4870E591F8F7208B4880496BE591F8FE
:1054700000218A487D4966E5894B7C499A7F8948A5
:1054800061E5874B794993F8202087485BE5844B99
:1054900076495A8C854856E5814B74491A7A844876
:1054A00051E5844B71491A7983484CE5814B6F492A
:1054B0009A78824847E57F4B6C491A88804842E5D4
:1054C0007C4B6A49DA897F483DE5BA7867497E486E
:1054D00039E57E4B65491A687D4834E51A2010F09D
:1054E0003FF9A0B17B4B1B888BB97B4B0EA91B6886
:1054F0000E200E93049B0F9306F07EF9774B1A68EB
:10550000774B1A600A232370049806F0C3F906F05B
:105510003FF9FFF799BB734B1B78002BF4D01A208F
:1055200010F01EF90028EFD16F4B93F80331002BD8
:10553000EAD109232370EAE76C4B1A686C4B5B686D
:10554000C833934211D2AB78032B0BD1694E30682C
:1055500004F0CAFB00233360674B1B78022B01D198
:1055600004F0C6FD0123FFF754BB12F091FB0028A5
:10557000E9D1FFF769BB012A01D107F037F90D2303
:105580001320237010F00AFFFFF75EBB012A04D13D
:1055900007F00AF800283FF457AB0E23F0E71F206E
:1055A00010F0DEF800287FF44FABDBE7EB78002B40
:1055B0003FF45DAB00274FF0010AB9464F4B1B6823
:1055C000D8044BBF4E4B3B4BB3F804B0B3F814B008
:1055D000584611F0D5FC4B4B014653F82700D046F6
:1055E00011F0B6FE00B1C846013746EA0806082F9A
:1055F000F6B2EDD13D4B3C4F1B68BEB103F59C5359
:105600000833C7F804312378012B7FF430AB97F8C7
:105610000331002B7FF42BABAB78032B19D012F0A6
:1056200049F9012387F80331FFF721BBD7F804219B
:105630009A42E8D82378012B3FF419AB97F803314D
:10564000002B3FF414AB06F02BFC87F80361FFF747
:105650000EBB80200EF0F8F900287FF408ABDEE7DF
:1056600000230793FFF718BB4C310020B6E2010876
:10567000FEC701087DC601080EC801081CC8010844
:10568000262700200000C8422EC8010839C801089A
:10569000BE20002046C8010854C8010861C801089E
:1056A000AC35002077C8010888C80108A2C80108E5
:1056B000BCC80108E4210020CEC80108DFC80108E9
:1056C000F2C8010801C9010812C901088429002093
:1056D0001DC90108D8210020D4210020D420002099
:1056E000D02000209823002064100020F0350020F6
:1056F00060230020403B00206923002094230020E9
:10570000083B0020742500205E4BD9F800205B7810
:10571000069608934FF47A73B3FBF2F3C3EB43128C
:1057200003EB8203DB009BB205933B7804F1240773
:105730000993554BB3F90690059B5B080A93059BAB
:105740009D4201BF00237B6363673B604F4BF318AF
:10575000B3F93C007B6B03447B6311F011FC626F77
:1057600002F10108B8F1010FC4F8748007D10023D9
:10577000012DA0666066E3665DD1002030E0D4F8BC
:1057800064A00C9251460B9011F044FB83464046B6
:1057900011F0F6FB0146584611F0FAFC514611F0A3
:1057A0003BFB0B9B01468246A066184611F032FB7C
:1057B000594611F039FCE16E11F02EFB012D8346A4
:1057C0002067C4F864A0E0660C9A34D1B8F1010FE8
:1057D000D3DD104611F0D4FB0146584611F0D8FC39
:1057E00012F0B4FE099B8046032B05D112F0EEFBAC
:1057F00001230FFA80F90693089BABB1184611F00C
:10580000BFFB414611F0AEFD70B1069B13B11E4BBC
:10581000A3F806901E4809F0D3F800221D4B5A60E9
:105820009A60DA60FFF795BA0A9A7B6B1344059A7F
:1058300093FBF2F33B600236062E07F1040704F1F6
:1058400014047FF47CAF069B13B10F4BA3F80690B2
:10585000012D0FD10022104B1B689A621A63DA6285
:105860000E4B93F8083113B10D4B1B8813B901206F
:1058700010F094FD054AB2F8A030013BA2F8A03028
:10588000CBE700BF4C310020602100205C310020BC
:10589000FC310020CC33002044360020641000206E
:1058A000201C0020AD4B5B79002B00F00984AC4B31
:1058B0001B78013BDBB285F809312378072B40F0D8
:1058C000028405F027FC0990A64B4FF07E501B6820
:1058D00005936B680C93D5F80C311946089311F0B9
:1058E00099FAA14B196811F09FFB4FF07E510A9075
:1058F00011F042FD10B94FF07E530A934FF0000AA9
:105900004FF0000B994B9A4C07939A4B06939A4B86
:10591000DFF8B88253F82A70594638464FEA8A05AC
:1059200058F82A6011F014FDE0B908F1D40858F8CD
:105930002A803046414611F06DFA814620F0004140
:10594000384611F00FFD58B15946484611F028FD70
:10595000002800F0BC834146384611F05DFA064647
:10596000864BEE50864BB3F8008018F0030F3DD005
:10597000BAF1020F3AD0059B93F82F0011F000FB0B
:10598000804BE95811F050FB059B814693F82E306F
:1059900058420B9311F0F4FA07460146484611F0BD
:1059A000E1FC48B90B9B184611F0E6FA4946074658
:1059B00011F0E2FC00B94F46734B33F91A00069B15
:1059C000B3F90030C01A11F0DBFA704911F02CFB6A
:1059D0000146384611F01EFA18F0010F0D9000F044
:1059E000A7836B4B196811F01FFB064694F81C3116
:1059F000002B64D0BAF1020F61D0049AD4F82031A0
:105A0000D31A644A1268934259DD059B93F84830D3
:105A1000022B02D1012005F0EBFC069B5A4FB3F993
:105A2000000037F91A30C01A11F0AAFA584B06468E
:105A30005649186811F0F8FA0146304611F0F4FAA8
:105A4000049AD4F820310646D31A534A1268934276
:105A500030DC4FF07E51089811F084FC78B34F4B46
:105A60004F491A68B1F90A00B7F900301B1A002B28
:105A7000B8BF5B42934222DAB7F90230B1F90C1099
:105A80005B1A002BB8BF5B429A4218DD454BDFF82A
:105A900018811F68D8F80400394620F0004011F042
:105AA00061FC60B1D8F80810384621F0004111F0CF
:105AB00077FC20B1002084F81C0105F099FC3A4BDA
:105AC00030462B44D3F80490DFF80481494611F0A6
:105AD000A1F90746354B0C98E95811F0A5FA39465B
